{
  "abi": [
    {
      "inputs": [
        {
          "internalType": "contract IERC20",
          "name": "ybToken_",
          "type": "address"
        },
        {
          "internalType": "contract IERC4626",
          "name": "embankment_",
          "type": "address"
        }
      ],
      "stateMutability": "nonpayable",
      "type": "constructor"
    },
    {
      "inputs": [
        {
          "internalType": "address",
          "name": "target",
          "type": "address"
        }
      ],
      "name": "AddressEmptyCode",
      "type": "error"
    },
    {
      "inputs": [
        {
          "internalType": "address",
          "name": "account",
          "type": "address"
        }
      ],
      "name": "AddressInsufficientBalance",
      "type": "error"
    },
    {
      "inputs": [],
      "name": "DamNotOperating",
      "type": "error"
    },
    {
      "inputs": [],
      "name": "DamOperating",
      "type": "error"
    },
    {
      "inputs": [],
      "name": "ECDSAInvalidSignature",
      "type": "error"
    },
    {
      "inputs": [
        {
          "internalType": "uint256",
          "name": "length",
          "type": "uint256"
        }
      ],
      "name": "ECDSAInvalidSignatureLength",
      "type": "error"
    },
    {
      "inputs": [
        {
          "internalType": "bytes32",
          "name": "s",
          "type": "bytes32"
        }
      ],
      "name": "ECDSAInvalidSignatureS",
      "type": "error"
    },
    {
      "inputs": [],
      "name": "FailedInnerCall",
      "type": "error"
    },
    {
      "inputs": [],
      "name": "InsufficientBalance",
      "type": "error"
    },
    {
      "inputs": [],
      "name": "InvalidAddress",
      "type": "error"
    },
    {
      "inputs": [],
      "name": "InvalidAmountRequest",
      "type": "error"
    },
    {
      "inputs": [],
      "name": "InvalidPeriod",
      "type": "error"
    },
    {
      "inputs": [
        {
          "internalType": "uint256",
          "name": "proportion",
          "type": "uint256"
        }
      ],
      "name": "InvalidProportion",
      "type": "error"
    },
    {
      "inputs": [],
      "name": "InvalidRatio",
      "type": "error"
    },
    {
      "inputs": [],
      "name": "InvalidReceiver",
      "type": "error"
    },
    {
      "inputs": [],
      "name": "InvalidSignature",
      "type": "error"
    },
    {
      "inputs": [
        {
          "internalType": "address",
          "name": "owner",
          "type": "address"
        }
      ],
      "name": "OwnableInvalidOwner",
      "type": "error"
    },
    {
      "inputs": [
        {
          "internalType": "address",
          "name": "account",
          "type": "address"
        }
      ],
      "name": "OwnableUnauthorizedAccount",
      "type": "error"
    },
    {
      "inputs": [],
      "name": "RoundNotEnded",
      "type": "error"
    },
    {
      "inputs": [
        {
          "internalType": "address",
          "name": "token",
          "type": "address"
        }
      ],
      "name": "SafeERC20FailedOperation",
      "type": "error"
    },
    {
      "anonymous": false,
      "inputs": [],
      "name": "DecommissionDam",
      "type": "event"
    },
    {
      "anonymous": false,
      "inputs": [
        {
          "indexed": true,
          "internalType": "address",
          "name": "sender",
          "type": "address"
        },
        {
          "indexed": false,
          "internalType": "uint256",
          "name": "amount",
          "type": "uint256"
        }
      ],
      "name": "Deposit",
      "type": "event"
    },
    {
      "anonymous": false,
      "inputs": [
        {
          "indexed": true,
          "internalType": "address",
          "name": "receiver",
          "type": "address"
        },
        {
          "indexed": false,
          "internalType": "uint16",
          "name": "proportion",
          "type": "uint16"
        },
        {
          "indexed": false,
          "internalType": "uint256",
          "name": "amount",
          "type": "uint256"
        }
      ],
      "name": "DistributeIncentive",
      "type": "event"
    },
    {
      "anonymous": false,
      "inputs": [
        {
          "indexed": true,
          "internalType": "uint16",
          "name": "id",
          "type": "uint16"
        },
        {
          "indexed": false,
          "internalType": "bytes",
          "name": "data",
          "type": "bytes"
        }
      ],
      "name": "EndRound",
      "type": "event"
    },
    {
      "anonymous": false,
      "inputs": [],
      "name": "OperateDam",
      "type": "event"
    },
    {
      "anonymous": false,
      "inputs": [
        {
          "indexed": true,
          "internalType": "address",
          "name": "previousOwner",
          "type": "address"
        },
        {
          "indexed": true,
          "internalType": "address",
          "name": "newOwner",
          "type": "address"
        }
      ],
      "name": "OwnershipTransferred",
      "type": "event"
    },
    {
      "anonymous": false,
      "inputs": [
        {
          "indexed": true,
          "internalType": "address",
          "name": "receiver",
          "type": "address"
        },
        {
          "indexed": false,
          "internalType": "uint256",
          "name": "amount",
          "type": "uint256"
        }
      ],
      "name": "ScheduleWithdrawal",
      "type": "event"
    },
    {
      "anonymous": false,
      "inputs": [
        {
          "indexed": true,
          "internalType": "address",
          "name": "oldOracle",
          "type": "address"
        },
        {
          "indexed": true,
          "internalType": "address",
          "name": "newOracle",
          "type": "address"
        }
      ],
      "name": "SetOracle",
      "type": "event"
    },
    {
      "anonymous": false,
      "inputs": [
        {
          "indexed": false,
          "internalType": "uint256",
          "name": "period",
          "type": "uint256"
        },
        {
          "indexed": false,
          "internalType": "uint16",
          "name": "reinvestmentRatio",
          "type": "uint16"
        },
        {
          "indexed": false,
          "internalType": "uint16",
          "name": "autoStreamRatio",
          "type": "uint16"
        }
      ],
      "name": "SetUpstream",
      "type": "event"
    },
    {
      "anonymous": false,
      "inputs": [
        {
          "indexed": false,
          "internalType": "uint16",
          "name": "id",
          "type": "uint16"
        },
        {
          "indexed": false,
          "internalType": "uint256",
          "name": "startTime",
          "type": "uint256"
        },
        {
          "indexed": false,
          "internalType": "uint256",
          "name": "endTime",
          "type": "uint256"
        }
      ],
      "name": "StartRound",
      "type": "event"
    },
    {
      "anonymous": false,
      "inputs": [
        {
          "indexed": true,
          "internalType": "address",
          "name": "receiver",
          "type": "address"
        },
        {
          "indexed": false,
          "internalType": "uint256",
          "name": "amount",
          "type": "uint256"
        }
      ],
      "name": "Withdraw",
      "type": "event"
    },
    {
      "inputs": [
        {
          "internalType": "address",
          "name": "receiver",
          "type": "address"
        }
      ],
      "name": "decommissionDam",
      "outputs": [],
      "stateMutability": "nonpayable",
      "type": "function"
    },
    {
      "inputs": [
        {
          "internalType": "uint256",
          "name": "amount",
          "type": "uint256"
        }
      ],
      "name": "deposit",
      "outputs": [],
      "stateMutability": "nonpayable",
      "type": "function"
    },
    {
      "inputs": [
        {
          "internalType": "uint256",
          "name": "amount",
          "type": "uint256"
        },
        {
          "internalType": "uint256",
          "name": "deadline",
          "type": "uint256"
        },
        {
          "internalType": "uint8",
          "name": "v",
          "type": "uint8"
        },
        {
          "internalType": "bytes32",
          "name": "r",
          "type": "bytes32"
        },
        {
          "internalType": "bytes32",
          "name": "s",
          "type": "bytes32"
        }
      ],
      "name": "depositWithPermit",
      "outputs": [],
      "stateMutability": "nonpayable",
      "type": "function"
    },
    {
      "inputs": [],
      "name": "embankment",
      "outputs": [
        {
          "internalType": "contract IERC4626",
          "name": "",
          "type": "address"
        }
      ],
      "stateMutability": "view",
      "type": "function"
    },
    {
      "inputs": [
        {
          "internalType": "bytes",
          "name": "data",
          "type": "bytes"
        },
        {
          "internalType": "uint8",
          "name": "v",
          "type": "uint8"
        },
        {
          "internalType": "bytes32",
          "name": "r",
          "type": "bytes32"
        },
        {
          "internalType": "bytes32",
          "name": "s",
          "type": "bytes32"
        }
      ],
      "name": "endRound",
      "outputs": [],
      "stateMutability": "nonpayable",
      "type": "function"
    },
    {
      "inputs": [],
      "name": "fund",
      "outputs": [
        {
          "internalType": "uint256",
          "name": "",
          "type": "uint256"
        }
      ],
      "stateMutability": "view",
      "type": "function"
    },
    {
      "inputs": [],
      "name": "getTotalIncentive",
      "outputs": [
        {
          "internalType": "uint256",
          "name": "",
          "type": "uint256"
        },
        {
          "internalType": "uint256",
          "name": "",
          "type": "uint256"
        }
      ],
      "stateMutability": "view",
      "type": "function"
    },
    {
      "inputs": [
        {
          "internalType": "uint256",
          "name": "amount",
          "type": "uint256"
        },
        {
          "internalType": "uint256",
          "name": "period",
          "type": "uint256"
        },
        {
          "internalType": "uint16",
          "name": "reinvestmentRatio",
          "type": "uint16"
        },
        {
          "internalType": "uint16",
          "name": "autoStreamRatio",
          "type": "uint16"
        }
      ],
      "name": "operateDam",
      "outputs": [],
      "stateMutability": "nonpayable",
      "type": "function"
    },
    {
      "inputs": [
        {
          "internalType": "uint256",
          "name": "amount",
          "type": "uint256"
        },
        {
          "internalType": "uint256",
          "name": "period",
          "type": "uint256"
        },
        {
          "internalType": "uint16",
          "name": "reinvestmentRatio",
          "type": "uint16"
        },
        {
          "internalType": "uint16",
          "name": "autoStreamRatio",
          "type": "uint16"
        },
        {
          "internalType": "uint256",
          "name": "deadline",
          "type": "uint256"
        },
        {
          "internalType": "uint8",
          "name": "v",
          "type": "uint8"
        },
        {
          "internalType": "bytes32",
          "name": "r",
          "type": "bytes32"
        },
        {
          "internalType": "bytes32",
          "name": "s",
          "type": "bytes32"
        }
      ],
      "name": "operateDamWithPermit",
      "outputs": [],
      "stateMutability": "nonpayable",
      "type": "function"
    },
    {
      "inputs": [],
      "name": "oracle",
      "outputs": [
        {
          "internalType": "address",
          "name": "",
          "type": "address"
        }
      ],
      "stateMutability": "view",
      "type": "function"
    },
    {
      "inputs": [],
      "name": "owner",
      "outputs": [
        {
          "internalType": "address",
          "name": "",
          "type": "address"
        }
      ],
      "stateMutability": "view",
      "type": "function"
    },
    {
      "inputs": [],
      "name": "renounceOwnership",
      "outputs": [],
      "stateMutability": "nonpayable",
      "type": "function"
    },
    {
      "inputs": [],
      "name": "round",
      "outputs": [
        {
          "internalType": "uint16",
          "name": "id",
          "type": "uint16"
        },
        {
          "internalType": "bool",
          "name": "ongoing",
          "type": "bool"
        },
        {
          "internalType": "uint256",
          "name": "startTime",
          "type": "uint256"
        },
        {
          "internalType": "uint256",
          "name": "endTime",
          "type": "uint256"
        }
      ],
      "stateMutability": "view",
      "type": "function"
    },
    {
      "inputs": [
        {
          "internalType": "uint256",
          "name": "amount",
          "type": "uint256"
        },
        {
          "internalType": "address",
          "name": "receiver",
          "type": "address"
        }
      ],
      "name": "scheduleWithdrawal",
      "outputs": [],
      "stateMutability": "nonpayable",
      "type": "function"
    },
    {
      "inputs": [
        {
          "internalType": "address",
          "name": "newOracle",
          "type": "address"
        }
      ],
      "name": "setOracle",
      "outputs": [],
      "stateMutability": "nonpayable",
      "type": "function"
    },
    {
      "inputs": [
        {
          "internalType": "uint256",
          "name": "period",
          "type": "uint256"
        },
        {
          "internalType": "uint16",
          "name": "reinvestmentRatio",
          "type": "uint16"
        },
        {
          "internalType": "uint16",
          "name": "autoStreamRatio",
          "type": "uint16"
        }
      ],
      "name": "setUpstream",
      "outputs": [],
      "stateMutability": "nonpayable",
      "type": "function"
    },
    {
      "inputs": [
        {
          "internalType": "address",
          "name": "newOwner",
          "type": "address"
        }
      ],
      "name": "transferOwnership",
      "outputs": [],
      "stateMutability": "nonpayable",
      "type": "function"
    },
    {
      "inputs": [],
      "name": "upstream",
      "outputs": [
        {
          "internalType": "uint256",
          "name": "period",
          "type": "uint256"
        },
        {
          "internalType": "uint16",
          "name": "reinvestmentRatio",
          "type": "uint16"
        },
        {
          "internalType": "uint16",
          "name": "autoStreamRatio",
          "type": "uint16"
        },
        {
          "internalType": "bool",
          "name": "flowing",
          "type": "bool"
        }
      ],
      "stateMutability": "view",
      "type": "function"
    },
    {
      "inputs": [
        {
          "internalType": "address",
          "name": "receiver",
          "type": "address"
        }
      ],
      "name": "withdrawAll",
      "outputs": [],
      "stateMutability": "nonpayable",
      "type": "function"
    },
    {
      "inputs": [],
      "name": "withdrawal",
      "outputs": [
        {
          "internalType": "uint256",
          "name": "amount",
          "type": "uint256"
        },
        {
          "internalType": "address",
          "name": "receiver",
          "type": "address"
        }
      ],
      "stateMutability": "view",
      "type": "function"
    },
    {
      "inputs": [],
      "name": "ybToken",
      "outputs": [
        {
          "internalType": "contract IERC20",
          "name": "",
          "type": "address"
        }
      ],
      "stateMutability": "view",
      "type": "function"
    }
  ],
  "bytecode": {
    "object": "0x60c06040523480156200001157600080fd5b50604051620020cc380380620020cc8339810160408190526200003491620000e8565b33806200005b57604051631e4fbdf760e01b81526000600482015260240160405180910390fd5b62000066816200007f565b506001600160a01b039182166080521660a05262000127565b600080546001600160a01b038381166001600160a01b0319831681178455604051919092169283917f8be0079c531659141344cd1fd0a4f28419497f9722a3daafe3b4186f6b6457e09190a35050565b6001600160a01b0381168114620000e557600080fd5b50565b60008060408385031215620000fc57600080fd5b82516200010981620000cf565b60208401519092506200011c81620000cf565b809150509250929050565b60805160a051611f2b620001a1600039600081816102c40152818161089701528181610bfc01528181610c3d01528181610dc101528181610fba015261106a01526000818161034f015281816103db0152818161049101528181610b9d01528181610bda01528181610ee701526111030152611f2b6000f3fe608060405234801561001057600080fd5b50600436106101375760003560e01c8063a5e238e9116100b8578063d7ba276b1161007c578063d7ba276b1461031a578063e189106b14610337578063ea8a8df71461034a578063f2fde38b14610371578063fa09e63014610384578063fc1bc5651461039757600080fd5b8063a5e238e914610282578063b60d428814610295578063b6b55f25146102ac578063ba656dd8146102bf578063d4e93292146102e657600080fd5b806375f7fcf2116100ff57806375f7fcf21461020d5780637adbf973146102205780637dc0d1d0146102335780638da5cb5b1461025e578063950128551461026f57600080fd5b8063146ca5311461013c5780632a41693b146101875780634a970be71461019c5780636a99a523146101af578063715018a614610205575b600080fd5b60035460045460055461015d9261ffff8116926201000090910460ff169184565b6040805161ffff909516855292151560208501529183015260608201526080015b60405180910390f35b61019a610195366004611938565b6103aa565b005b61019a6101aa36600461198f565b6103c4565b6001546002546101d8919061ffff8082169162010000810490911690600160201b900460ff1684565b60405161017e949392919093845261ffff9283166020850152911660408301521515606082015260800190565b61019a610466565b61019a61021b3660046119d6565b61047a565b61019a61022e366004611a61565b610522565b600854610246906001600160a01b031681565b6040516001600160a01b03909116815260200161017e565b6000546001600160a01b0316610246565b61019a61027d366004611a7c565b6105f5565b61019a610290366004611b0f565b6107da565b61029e60095481565b60405190815260200161017e565b61019a6102ba366004611b3b565b61085f565b6102467f000000000000000000000000000000000000000000000000000000000000000081565b6006546007546102fd91906001600160a01b031682565b604080519283526001600160a01b0390911660208301520161017e565b610322610873565b6040805192835260208301919091520161017e565b61019a610345366004611a61565b61095e565b6102467f000000000000000000000000000000000000000000000000000000000000000081565b61019a61037f366004611a61565b6109d6565b61019a610392366004611a61565b610a11565b61019a6103a5366004611b54565b610a86565b6103b2610a9e565b6103be84848484610acb565b50505050565b6103cc610a9e565b60405163d505accf60e01b81527f00000000000000000000000000000000000000000000000000000000000000006001600160a01b03169063d505accf9061042490339030908a908a908a908a908a90600401611b90565b600060405180830381600087803b15801561043e57600080fd5b505af1158015610452573d6000803e3d6000fd5b5050505061045f85610b55565b5050505050565b61046e610a9e565b6104786000610cfa565b565b610482610a9e565b60405163d505accf60e01b81527f00000000000000000000000000000000000000000000000000000000000000006001600160a01b03169063d505accf906104da90339030908d908a908a908a908a90600401611b90565b600060405180830381600087803b1580156104f457600080fd5b505af1158015610508573d6000803e3d6000fd5b5050505061051888888888610acb565b5050505050505050565b60005433906001600160a01b0316811480159061054d57506008546001600160a01b03828116911614155b1561057b5760405163118cdaa760e01b81526001600160a01b03821660048201526024015b60405180910390fd5b6001600160a01b0382166105a25760405163e6c4247b60e01b815260040160405180910390fd5b600880546001600160a01b038481166001600160a01b0319831681179093556040519116919082907fb7261e9c33aa7c56209c3bf60b424a8f9551ce28876c0ab3d0c487695e94348790600090a3505050565b60005433906001600160a01b0316811480159061062057506008546001600160a01b03828116911614155b156106495760405163118cdaa760e01b81526001600160a01b0382166004820152602401610572565b60055460039042101561066f57604051636218b96960e11b815260040160405180910390fd5b6008546040516001600160a01b03909116906106df908790879087906106d79061069c908e908e90611bd1565b60405180910390207f19457468657265756d205369676e6564204d6573736167653a0a3332000000006000908152601c91909152603c902090565b929190610d4a565b6001600160a01b03161461070657604051638baa579f60e01b815260040160405180910390fd5b805462ff00001916815561071a8787610d78565b604080518082019091526006548082526007546001600160a01b031660208301521561077d5761075281600001518260200151610f9c565b6040805180820190915260008082526020909101819052600655600780546001600160a01b03191690555b815460405161ffff909116907f279a5a1dc0b9171cfc9d4d7d4e4bb0ab3c8a981caa707b3bb625c144b5b3d6b0906107b8908b908b90611be1565b60405180910390a2600254600160201b900460ff1615610518576105186111a9565b6107e2610a9e565b600254600160201b900460ff1661080c5760405163e8103dfd60e01b815260040160405180910390fd5b60095482111561082f57604051631e9acf1760e31b815260040160405180910390fd5b60095482036108515760405163dbb31ff560e01b815260040160405180910390fd5b61085b82826112ec565b5050565b610867610a9e565b61087081610b55565b50565b60405163ce96cb7760e01b8152306004820152600090819081906001600160a01b037f0000000000000000000000000000000000000000000000000000000000000000169063ce96cb7790602401602060405180830381865afa1580156108de573d6000803e3d6000fd5b505050506040513d601f19601f820116820180604052508101906109029190611c10565b90506000600954826109149190611c3f565b600254909150819060009061ffff1680156109525761094361093882612710611c52565b859061ffff16611375565b925061094f8385611c3f565b91505b50909590945092505050565b610966610a9e565b600254600160201b900460ff166109905760405163e8103dfd60e01b815260040160405180910390fd5b61099c600019826112ec565b6002805464ff00000000191690556040517f2c697fe98db8a73cca91f037831ba797c2059ef4346744cf40ebefaaaec1d20290600090a150565b6109de610a9e565b6001600160a01b038116610a0857604051631e4fbdf760e01b815260006004820152602401610572565b61087081610cfa565b610a19610a9e565b600254600160201b900460ff1615610a4457604051630fa21a6560e21b815260040160405180910390fd5b600554421080610a5c575060035462010000900460ff165b15610a7a57604051636218b96960e11b815260040160405180910390fd5b61087060001982610f9c565b610a8e610a9e565b610a99838383611395565b505050565b6000546001600160a01b031633146104785760405163118cdaa760e01b8152336004820152602401610572565b600254600160201b900460ff1615610af657604051630fa21a6560e21b815260040160405180910390fd5b6002805464ff000000001916600160201b179055610b15838383611395565b610b1e84610b55565b610b266111a9565b6040517fb37eb983bea995b8ff19dab779d7d6630b378dd57f2eda0f75d31037b5d6530c90600090a150505050565b600254600160201b900460ff16610b7f5760405163e8103dfd60e01b815260040160405180910390fd5b8060096000828254610b919190611c74565b90915550339050610bcd7f00000000000000000000000000000000000000000000000000000000000000006001600160a01b031682308561145d565b610c216001600160a01b037f0000000000000000000000000000000000000000000000000000000000000000167f0000000000000000000000000000000000000000000000000000000000000000846114c4565b604051636e553f6560e01b8152600481018390523060248201527f00000000000000000000000000000000000000000000000000000000000000006001600160a01b031690636e553f65906044016020604051808303816000875af1158015610c8e573d6000803e3d6000fd5b505050506040513d601f19601f82011682018060405250810190610cb29190611c10565b50806001600160a01b03167fe1fffcc4923d04b559f4d29a8bfc6cda04eb5b0d3c460751c2402c5c5cc9109c83604051610cee91815260200190565b60405180910390a25050565b600080546001600160a01b038381166001600160a01b0319831681178455604051919092169283917f8be0079c531659141344cd1fd0a4f28419497f9722a3daafe3b4186f6b6457e09190a35050565b600080600080610d5c88888888611554565b925092509250610d6c8282611623565b50909695505050505050565b600080610d83610873565b915091508060096000828254610d999190611c74565b9091555050604051632d182be560e21b815260048101839052306024820181905260448201527f00000000000000000000000000000000000000000000000000000000000000006001600160a01b03169063b460af94906064016020604051808303816000875af1158015610e12573d6000803e3d6000fd5b505050506040513d601f19601f82011682018060405250810190610e369190611c10565b50600080610e4685870187611d64565b81519193509150846000805b83811015610f64576000868281518110610e6e57610e6e611e24565b602002602001015190506000868381518110610e8c57610e8c611e24565b602002602001015190506000600187610ea59190611c3f565b8414610ebe57610eb98b61ffff8416611375565b610ec0565b855b9050610ecc8286611e3a565b9450610ed88187611c3f565b9550610f0e6001600160a01b037f00000000000000000000000000000000000000000000000000000000000000001684836116dc565b6040805161ffff84168152602081018390526001600160a01b038516917fab643f94b66ba7785e49b15dd5b32253ca142bf1c5031c15fb4314bac38bfaae910160405180910390a2836001019350505050610e52565b5061ffff811661271014610f91576040516329f1733d60e11b815261ffff82166004820152602401610572565b505050505050505050565b60001982036110305760405163ce96cb7760e01b81523060048201527f00000000000000000000000000000000000000000000000000000000000000006001600160a01b03169063ce96cb7790602401602060405180830381865afa158015611009573d6000803e3d6000fd5b505050506040513d601f19601f8201168201806040525081019061102d9190611c10565b91505b81600960008282546110429190611c3f565b9091555050604051632d182be560e21b815260048101839052306024820181905260448201527f00000000000000000000000000000000000000000000000000000000000000006001600160a01b03169063b460af94906064016020604051808303816000875af19250505080156110d7575060408051601f3d908101601f191682019092526110d491810190611c10565b60015b1561085b575060405163a9059cbb60e01b81526001600160a01b038281166004830152602482018490527f0000000000000000000000000000000000000000000000000000000000000000169063a9059cbb906044016020604051808303816000875af1925050508015611168575060408051601f3d908101601f1916820190925261116591810190611e55565b60015b1561085b5750806001600160a01b03167f884edad9ce6fa2440d8a54cc123490eb96d2768479d49ff9c7366125a942436483604051610cee91815260200190565b60408051608081018252600154815260025461ffff80821660208401526201000082041692820192909252600160201b90910460ff1615156060820181905260039190429061120b5760405163e8103dfd60e01b815260040160405180910390fd5b600554811080611223575060035462010000900460ff165b1561124157604051636218b96960e11b815260040160405180910390fd5b8254600190849060009061125a90849061ffff16611e3a565b825461ffff9182166101009390930a928302919092021990911617905550825462ff000019166201000017835560018301819055815161129a9082611c74565b600284015582546005546040805161ffff9093168352602083018490528201527f327a174d4de28c25925b60fe178ebbe0cfff5a073f8197106e63100bc3db1c769060600160405180910390a1505050565b6001600160a01b03811661131357604051631e4ec46b60e01b815260040160405180910390fd5b6040805180820182528381526001600160a01b03831660209182018190526006859055600780546001600160a01b0319168217905591518481527fe4b67652e856f57a7747dd2473850ce987087f4b1744a870504f1c047cb56f4f9101610cee565b60006127106113848385611e77565b61138e9190611e8e565b9392505050565b826000036113b6576040516302e8f35960e31b815260040160405180910390fd5b61271061ffff831611806113cf575061271061ffff8216115b156113ed5760405163648564d360e01b815260040160405180910390fd5b60018381556002805461ffff85811663ffffffff19909216821762010000918616918202179092556040805187815260208101929092528101919091527fc2f24689b2f895155a610399cfef2f3ce9c51f1ece3e25e851c2c2fdc12fd5349060600160405180910390a150505050565b6040516001600160a01b0384811660248301528381166044830152606482018390526103be9186918216906323b872dd906084015b604051602081830303815290604052915060e01b6020820180516001600160e01b03838183161783525050505061170d565b604080516001600160a01b038416602482015260448082018490528251808303909101815260649091019091526020810180516001600160e01b031663095ea7b360e01b1790526115158482611770565b6103be576040516001600160a01b0384811660248301526000604483015261154a91869182169063095ea7b390606401611492565b6103be848261170d565b600080807f7fffffffffffffffffffffffffffffff5d576e7357a4501ddfe92f46681b20a084111561158f5750600091506003905082611619565b604080516000808252602082018084528a905260ff891692820192909252606081018790526080810186905260019060a0016020604051602081039080840390855afa1580156115e3573d6000803e3d6000fd5b5050604051601f1901519150506001600160a01b03811661160f57506000925060019150829050611619565b9250600091508190505b9450945094915050565b600082600381111561163757611637611eb0565b03611640575050565b600182600381111561165457611654611eb0565b036116725760405163f645eedf60e01b815260040160405180910390fd5b600282600381111561168657611686611eb0565b036116a75760405163fce698f760e01b815260048101829052602401610572565b60038260038111156116bb576116bb611eb0565b0361085b576040516335e2f38360e21b815260048101829052602401610572565b6040516001600160a01b03838116602483015260448201839052610a9991859182169063a9059cbb90606401611492565b60006117226001600160a01b0384168361181a565b905080516000141580156117475750808060200190518101906117459190611e55565b155b15610a9957604051635274afe760e01b81526001600160a01b0384166004820152602401610572565b6000806000846001600160a01b03168460405161178d9190611ec6565b6000604051808303816000865af19150503d80600081146117ca576040519150601f19603f3d011682016040523d82523d6000602084013e6117cf565b606091505b50915091508180156117f95750805115806117f95750808060200190518101906117f99190611e55565b801561180f57506000856001600160a01b03163b115b925050505b92915050565b606061138e8383600084600080856001600160a01b031684866040516118409190611ec6565b60006040518083038185875af1925050503d806000811461187d576040519150601f19603f3d011682016040523d82523d6000602084013e611882565b606091505b509150915061189286838361189c565b9695505050505050565b6060826118b1576118ac826118f8565b61138e565b81511580156118c857506001600160a01b0384163b155b156118f157604051639996b31560e01b81526001600160a01b0385166004820152602401610572565b508061138e565b8051156119085780518082602001fd5b604051630a12f52160e11b815260040160405180910390fd5b803561ffff8116811461193357600080fd5b919050565b6000806000806080858703121561194e57600080fd5b843593506020850135925061196560408601611921565b915061197360608601611921565b905092959194509250565b803560ff8116811461193357600080fd5b600080600080600060a086880312156119a757600080fd5b85359450602086013593506119be6040870161197e565b94979396509394606081013594506080013592915050565b600080600080600080600080610100898b0312156119f357600080fd5b8835975060208901359650611a0a60408a01611921565b9550611a1860608a01611921565b945060808901359350611a2d60a08a0161197e565b925060c0890135915060e089013590509295985092959890939650565b80356001600160a01b038116811461193357600080fd5b600060208284031215611a7357600080fd5b61138e82611a4a565b600080600080600060808688031215611a9457600080fd5b853567ffffffffffffffff80821115611aac57600080fd5b818801915088601f830112611ac057600080fd5b813581811115611acf57600080fd5b896020828501011115611ae157600080fd5b602092830197509550611af7918801905061197e565b94979396509394604081013594506060013592915050565b60008060408385031215611b2257600080fd5b82359150611b3260208401611a4a565b90509250929050565b600060208284031215611b4d57600080fd5b5035919050565b600080600060608486031215611b6957600080fd5b83359250611b7960208501611921565b9150611b8760408501611921565b90509250925092565b6001600160a01b0397881681529590961660208601526040850193909352606084019190915260ff16608083015260a082015260c081019190915260e00190565b8183823760009101908152919050565b60208152816020820152818360408301376000818301604090810191909152601f909201601f19160101919050565b600060208284031215611c2257600080fd5b5051919050565b634e487b7160e01b600052601160045260246000fd5b8181038181111561181457611814611c29565b61ffff828116828216039080821115611c6d57611c6d611c29565b5092915050565b8082018082111561181457611814611c29565b634e487b7160e01b600052604160045260246000fd5b604051601f8201601f1916810167ffffffffffffffff81118282101715611cc657611cc6611c87565b604052919050565b600067ffffffffffffffff821115611ce857611ce8611c87565b5060051b60200190565b600082601f830112611d0357600080fd5b81356020611d18611d1383611cce565b611c9d565b82815260059290921b84018101918181019086841115611d3757600080fd5b8286015b84811015611d5957611d4c81611921565b8352918301918301611d3b565b509695505050505050565b60008060408385031215611d7757600080fd5b823567ffffffffffffffff80821115611d8f57600080fd5b818501915085601f830112611da357600080fd5b81356020611db3611d1383611cce565b82815260059290921b84018101918181019089841115611dd257600080fd5b948201945b83861015611df757611de886611a4a565b82529482019490820190611dd7565b96505086013592505080821115611e0d57600080fd5b50611e1a85828601611cf2565b9150509250929050565b634e487b7160e01b600052603260045260246000fd5b61ffff818116838216019080821115611c6d57611c6d611c29565b600060208284031215611e6757600080fd5b8151801515811461138e57600080fd5b808202811582820484141761181457611814611c29565b600082611eab57634e487b7160e01b600052601260045260246000fd5b500490565b634e487b7160e01b600052602160045260246000fd5b6000825160005b81811015611ee75760208186018101518583015201611ecd565b50600092019182525091905056fea264697066735822122061429295c6a0a04638b4fbd4dbba23a4aa958734b22aa8390bbb1562b979428c64736f6c63430008140033",
    "linkReferences": {}
  },
  "methodIdentifiers": {
    "decommissionDam(address)": "e189106b",
    "deposit(uint256)": "b6b55f25",
    "depositWithPermit(uint256,uint256,uint8,bytes32,bytes32)": "4a970be7",
    "embankment()": "ba656dd8",
    "endRound(bytes,uint8,bytes32,bytes32)": "95012855",
    "fund()": "b60d4288",
    "getTotalIncentive()": "d7ba276b",
    "operateDam(uint256,uint256,uint16,uint16)": "2a41693b",
    "operateDamWithPermit(uint256,uint256,uint16,uint16,uint256,uint8,bytes32,bytes32)": "75f7fcf2",
    "oracle()": "7dc0d1d0",
    "owner()": "8da5cb5b",
    "renounceOwnership()": "715018a6",
    "round()": "146ca531",
    "scheduleWithdrawal(uint256,address)": "a5e238e9",
    "setOracle(address)": "7adbf973",
    "setUpstream(uint256,uint16,uint16)": "fc1bc565",
    "transferOwnership(address)": "f2fde38b",
    "upstream()": "6a99a523",
    "withdrawAll(address)": "fa09e630",
    "withdrawal()": "d4e93292",
    "ybToken()": "ea8a8df7"
  },
  "id": 45
}