{
  "abi": [
    {
      "inputs": [
        {
          "internalType": "contract IERC20",
          "name": "ybToken_",
          "type": "address"
        },
        {
          "internalType": "contract IERC4626",
          "name": "embankment_",
          "type": "address"
        }
      ],
      "stateMutability": "nonpayable",
      "type": "constructor"
    },
    {
      "inputs": [
        {
          "internalType": "address",
          "name": "target",
          "type": "address"
        }
      ],
      "name": "AddressEmptyCode",
      "type": "error"
    },
    {
      "inputs": [
        {
          "internalType": "address",
          "name": "account",
          "type": "address"
        }
      ],
      "name": "AddressInsufficientBalance",
      "type": "error"
    },
    {
      "inputs": [],
      "name": "DamAlredyOperating",
      "type": "error"
    },
    {
      "inputs": [],
      "name": "DamNotOperating",
      "type": "error"
    },
    {
      "inputs": [],
      "name": "ECDSAInvalidSignature",
      "type": "error"
    },
    {
      "inputs": [
        {
          "internalType": "uint256",
          "name": "length",
          "type": "uint256"
        }
      ],
      "name": "ECDSAInvalidSignatureLength",
      "type": "error"
    },
    {
      "inputs": [
        {
          "internalType": "bytes32",
          "name": "s",
          "type": "bytes32"
        }
      ],
      "name": "ECDSAInvalidSignatureS",
      "type": "error"
    },
    {
      "inputs": [],
      "name": "FailedInnerCall",
      "type": "error"
    },
    {
      "inputs": [],
      "name": "InsufficientBalance",
      "type": "error"
    },
    {
      "inputs": [],
      "name": "InvalidAddress",
      "type": "error"
    },
    {
      "inputs": [],
      "name": "InvalidAmountRequest",
      "type": "error"
    },
    {
      "inputs": [],
      "name": "InvalidPeriod",
      "type": "error"
    },
    {
      "inputs": [
        {
          "internalType": "uint256",
          "name": "proportion",
          "type": "uint256"
        }
      ],
      "name": "InvalidProportion",
      "type": "error"
    },
    {
      "inputs": [],
      "name": "InvalidRatio",
      "type": "error"
    },
    {
      "inputs": [],
      "name": "InvalidReceiver",
      "type": "error"
    },
    {
      "inputs": [],
      "name": "InvalidSignature",
      "type": "error"
    },
    {
      "inputs": [
        {
          "internalType": "address",
          "name": "owner",
          "type": "address"
        }
      ],
      "name": "OwnableInvalidOwner",
      "type": "error"
    },
    {
      "inputs": [
        {
          "internalType": "address",
          "name": "account",
          "type": "address"
        }
      ],
      "name": "OwnableUnauthorizedAccount",
      "type": "error"
    },
    {
      "inputs": [],
      "name": "RoundNotEnded",
      "type": "error"
    },
    {
      "inputs": [
        {
          "internalType": "address",
          "name": "token",
          "type": "address"
        }
      ],
      "name": "SafeERC20FailedOperation",
      "type": "error"
    },
    {
      "anonymous": false,
      "inputs": [],
      "name": "DecommissionDam",
      "type": "event"
    },
    {
      "anonymous": false,
      "inputs": [
        {
          "indexed": true,
          "internalType": "address",
          "name": "sender",
          "type": "address"
        },
        {
          "indexed": false,
          "internalType": "uint256",
          "name": "amount",
          "type": "uint256"
        }
      ],
      "name": "Deposit",
      "type": "event"
    },
    {
      "anonymous": false,
      "inputs": [
        {
          "indexed": true,
          "internalType": "address",
          "name": "receiver",
          "type": "address"
        },
        {
          "indexed": false,
          "internalType": "uint16",
          "name": "proportion",
          "type": "uint16"
        },
        {
          "indexed": false,
          "internalType": "uint256",
          "name": "amount",
          "type": "uint256"
        }
      ],
      "name": "DistributeIncentive",
      "type": "event"
    },
    {
      "anonymous": false,
      "inputs": [
        {
          "indexed": true,
          "internalType": "uint16",
          "name": "id",
          "type": "uint16"
        },
        {
          "indexed": false,
          "internalType": "bytes",
          "name": "data",
          "type": "bytes"
        }
      ],
      "name": "EndRound",
      "type": "event"
    },
    {
      "anonymous": false,
      "inputs": [],
      "name": "OperateDam",
      "type": "event"
    },
    {
      "anonymous": false,
      "inputs": [
        {
          "indexed": true,
          "internalType": "address",
          "name": "previousOwner",
          "type": "address"
        },
        {
          "indexed": true,
          "internalType": "address",
          "name": "newOwner",
          "type": "address"
        }
      ],
      "name": "OwnershipTransferred",
      "type": "event"
    },
    {
      "anonymous": false,
      "inputs": [
        {
          "indexed": true,
          "internalType": "address",
          "name": "receiver",
          "type": "address"
        },
        {
          "indexed": false,
          "internalType": "uint256",
          "name": "amount",
          "type": "uint256"
        }
      ],
      "name": "ScheduleWithdrawal",
      "type": "event"
    },
    {
      "anonymous": false,
      "inputs": [
        {
          "indexed": true,
          "internalType": "address",
          "name": "oldOracle",
          "type": "address"
        },
        {
          "indexed": true,
          "internalType": "address",
          "name": "newOracle",
          "type": "address"
        }
      ],
      "name": "SetOracle",
      "type": "event"
    },
    {
      "anonymous": false,
      "inputs": [
        {
          "indexed": false,
          "internalType": "uint256",
          "name": "period",
          "type": "uint256"
        },
        {
          "indexed": false,
          "internalType": "uint16",
          "name": "reinvestmentRatio",
          "type": "uint16"
        },
        {
          "indexed": false,
          "internalType": "uint16",
          "name": "autoStreamRatio",
          "type": "uint16"
        }
      ],
      "name": "SetUpstream",
      "type": "event"
    },
    {
      "anonymous": false,
      "inputs": [
        {
          "indexed": false,
          "internalType": "uint16",
          "name": "id",
          "type": "uint16"
        },
        {
          "indexed": false,
          "internalType": "uint256",
          "name": "startTime",
          "type": "uint256"
        },
        {
          "indexed": false,
          "internalType": "uint256",
          "name": "endTime",
          "type": "uint256"
        }
      ],
      "name": "StartRound",
      "type": "event"
    },
    {
      "anonymous": false,
      "inputs": [
        {
          "indexed": true,
          "internalType": "address",
          "name": "receiver",
          "type": "address"
        },
        {
          "indexed": false,
          "internalType": "uint256",
          "name": "amount",
          "type": "uint256"
        }
      ],
      "name": "Withdraw",
      "type": "event"
    },
    {
      "inputs": [
        {
          "internalType": "address",
          "name": "receiver",
          "type": "address"
        }
      ],
      "name": "decommissionDam",
      "outputs": [],
      "stateMutability": "nonpayable",
      "type": "function"
    },
    {
      "inputs": [
        {
          "internalType": "uint256",
          "name": "amount",
          "type": "uint256"
        }
      ],
      "name": "deposit",
      "outputs": [],
      "stateMutability": "nonpayable",
      "type": "function"
    },
    {
      "inputs": [],
      "name": "embankment",
      "outputs": [
        {
          "internalType": "contract IERC4626",
          "name": "",
          "type": "address"
        }
      ],
      "stateMutability": "view",
      "type": "function"
    },
    {
      "inputs": [
        {
          "internalType": "bytes",
          "name": "data",
          "type": "bytes"
        },
        {
          "internalType": "uint8",
          "name": "v",
          "type": "uint8"
        },
        {
          "internalType": "bytes32",
          "name": "r",
          "type": "bytes32"
        },
        {
          "internalType": "bytes32",
          "name": "s",
          "type": "bytes32"
        }
      ],
      "name": "endRound",
      "outputs": [],
      "stateMutability": "nonpayable",
      "type": "function"
    },
    {
      "inputs": [],
      "name": "fund",
      "outputs": [
        {
          "internalType": "uint256",
          "name": "",
          "type": "uint256"
        }
      ],
      "stateMutability": "view",
      "type": "function"
    },
    {
      "inputs": [],
      "name": "getTotalIncentive",
      "outputs": [
        {
          "internalType": "uint256",
          "name": "",
          "type": "uint256"
        },
        {
          "internalType": "uint256",
          "name": "",
          "type": "uint256"
        }
      ],
      "stateMutability": "view",
      "type": "function"
    },
    {
      "inputs": [
        {
          "internalType": "uint256",
          "name": "amount",
          "type": "uint256"
        },
        {
          "internalType": "uint256",
          "name": "period",
          "type": "uint256"
        },
        {
          "internalType": "uint16",
          "name": "reinvestmentRatio",
          "type": "uint16"
        },
        {
          "internalType": "uint16",
          "name": "autoStreamRatio",
          "type": "uint16"
        }
      ],
      "name": "operateDam",
      "outputs": [],
      "stateMutability": "nonpayable",
      "type": "function"
    },
    {
      "inputs": [],
      "name": "oracle",
      "outputs": [
        {
          "internalType": "address",
          "name": "",
          "type": "address"
        }
      ],
      "stateMutability": "view",
      "type": "function"
    },
    {
      "inputs": [],
      "name": "owner",
      "outputs": [
        {
          "internalType": "address",
          "name": "",
          "type": "address"
        }
      ],
      "stateMutability": "view",
      "type": "function"
    },
    {
      "inputs": [],
      "name": "renounceOwnership",
      "outputs": [],
      "stateMutability": "nonpayable",
      "type": "function"
    },
    {
      "inputs": [],
      "name": "round",
      "outputs": [
        {
          "internalType": "uint16",
          "name": "id",
          "type": "uint16"
        },
        {
          "internalType": "uint256",
          "name": "startTime",
          "type": "uint256"
        },
        {
          "internalType": "uint256",
          "name": "endTime",
          "type": "uint256"
        }
      ],
      "stateMutability": "view",
      "type": "function"
    },
    {
      "inputs": [
        {
          "internalType": "uint256",
          "name": "amount",
          "type": "uint256"
        },
        {
          "internalType": "address",
          "name": "receiver",
          "type": "address"
        }
      ],
      "name": "scheduleWithdrawal",
      "outputs": [],
      "stateMutability": "nonpayable",
      "type": "function"
    },
    {
      "inputs": [
        {
          "internalType": "address",
          "name": "newOracle",
          "type": "address"
        }
      ],
      "name": "setOracle",
      "outputs": [],
      "stateMutability": "nonpayable",
      "type": "function"
    },
    {
      "inputs": [
        {
          "internalType": "uint256",
          "name": "period",
          "type": "uint256"
        },
        {
          "internalType": "uint16",
          "name": "reinvestmentRatio",
          "type": "uint16"
        },
        {
          "internalType": "uint16",
          "name": "autoStreamRatio",
          "type": "uint16"
        }
      ],
      "name": "setUpstream",
      "outputs": [],
      "stateMutability": "nonpayable",
      "type": "function"
    },
    {
      "inputs": [
        {
          "internalType": "address",
          "name": "newOwner",
          "type": "address"
        }
      ],
      "name": "transferOwnership",
      "outputs": [],
      "stateMutability": "nonpayable",
      "type": "function"
    },
    {
      "inputs": [],
      "name": "upstream",
      "outputs": [
        {
          "internalType": "uint256",
          "name": "period",
          "type": "uint256"
        },
        {
          "internalType": "uint16",
          "name": "reinvestmentRatio",
          "type": "uint16"
        },
        {
          "internalType": "uint16",
          "name": "autoStreamRatio",
          "type": "uint16"
        },
        {
          "internalType": "bool",
          "name": "flowing",
          "type": "bool"
        }
      ],
      "stateMutability": "view",
      "type": "function"
    },
    {
      "inputs": [],
      "name": "withdrawal",
      "outputs": [
        {
          "internalType": "uint256",
          "name": "amount",
          "type": "uint256"
        },
        {
          "internalType": "address",
          "name": "receiver",
          "type": "address"
        }
      ],
      "stateMutability": "view",
      "type": "function"
    },
    {
      "inputs": [],
      "name": "ybToken",
      "outputs": [
        {
          "internalType": "contract IERC20",
          "name": "",
          "type": "address"
        }
      ],
      "stateMutability": "view",
      "type": "function"
    }
  ],
  "bytecode": {
    "object": "0x60c06040523480156200001157600080fd5b5060405162001d8038038062001d808339810160408190526200003491620000e8565b33806200005b57604051631e4fbdf760e01b81526000600482015260240160405180910390fd5b62000066816200007f565b506001600160a01b039182166080521660a05262000127565b600080546001600160a01b038381166001600160a01b0319831681178455604051919092169283917f8be0079c531659141344cd1fd0a4f28419497f9722a3daafe3b4186f6b6457e09190a35050565b6001600160a01b0381168114620000e557600080fd5b50565b60008060408385031215620000fc57600080fd5b82516200010981620000cf565b60208401519092506200011c81620000cf565b809150509250929050565b60805160a051611bed620001936000396000818161026d0152818161077901528181610aa701528181610ae801528181610d8f01528181610f8801526110380152600081816102f801528181610a4801528181610a8501528181610eb501526110d10152611bed6000f3fe608060405234801561001057600080fd5b50600436106101165760003560e01c8063b60d4288116100a2578063d7ba276b11610071578063d7ba276b146102c3578063e189106b146102e0578063ea8a8df7146102f3578063f2fde38b1461031a578063fc1bc5651461032d57600080fd5b8063b60d42881461023e578063b6b55f2514610255578063ba656dd814610268578063d4e932921461028f57600080fd5b80637adbf973116100e95780637adbf973146101c95780637dc0d1d0146101dc5780638da5cb5b146102075780639501285514610218578063a5e238e91461022b57600080fd5b8063146ca5311461011b5780632a41693b146101565780636a99a5231461016b578063715018a6146101c1575b600080fd5b6003546004546005546101319261ffff16919083565b6040805161ffff90941684526020840192909252908201526060015b60405180910390f35b610169610164366004611701565b610340565b005b600154600254610194919061ffff8082169162010000810490911690600160201b900460ff1684565b60405161014d949392919093845261ffff9283166020850152911660408301521515606082015260800190565b6101696103d2565b6101696101d736600461175e565b6103e6565b6008546101ef906001600160a01b031681565b6040516001600160a01b03909116815260200161014d565b6000546001600160a01b03166101ef565b610169610226366004611779565b6104b9565b610169610239366004611812565b6106bc565b61024760095481565b60405190815260200161014d565b61016961026336600461183e565b610741565b6101ef7f000000000000000000000000000000000000000000000000000000000000000081565b6006546007546102a691906001600160a01b031682565b604080519283526001600160a01b0390911660208301520161014d565b6102cb610755565b6040805192835260208301919091520161014d565b6101696102ee36600461175e565b610840565b6101ef7f000000000000000000000000000000000000000000000000000000000000000081565b61016961032836600461175e565b6108b8565b61016961033b366004611857565b6108f3565b61034861090b565b600254600160201b900460ff16156103735760405163a24b531560e01b815260040160405180910390fd5b6002805464ff000000001916600160201b179055610392838383610938565b61039b84610a00565b6103a3610ba5565b6040517fb37eb983bea995b8ff19dab779d7d6630b378dd57f2eda0f75d31037b5d6530c90600090a150505050565b6103da61090b565b6103e46000610cc8565b565b60005433906001600160a01b0316811480159061041157506008546001600160a01b03828116911614155b1561043f5760405163118cdaa760e01b81526001600160a01b03821660048201526024015b60405180910390fd5b6001600160a01b0382166104665760405163e6c4247b60e01b815260040160405180910390fd5b600880546001600160a01b038481166001600160a01b0319831681179093556040519116919082907fb7261e9c33aa7c56209c3bf60b424a8f9551ce28876c0ab3d0c487695e94348790600090a3505050565b60005433906001600160a01b031681148015906104e457506008546001600160a01b03828116911614155b1561050d5760405163118cdaa760e01b81526001600160a01b0382166004820152602401610436565b6040805160608101825260035461ffff16815260045460208201526005549181018290529042101561055257604051636218b96960e11b815260040160405180910390fd5b6008546040516001600160a01b03909116906105c2908790879087906105ba9061057f908e908e90611893565b60405180910390207f19457468657265756d205369676e6564204d6573736167653a0a3332000000006000908152601c91909152603c902090565b929190610d18565b6001600160a01b0316146105e957604051638baa579f60e01b815260040160405180910390fd5b6105f38787610d46565b604080518082019091526006548082526007546001600160a01b03166020830152156106565761062b81600001518260200151610f6a565b6040805180820190915260008082526020909101819052600655600780546001600160a01b03191690555b600254600160201b900460ff161561067057610670610ba5565b816000015161ffff167f279a5a1dc0b9171cfc9d4d7d4e4bb0ab3c8a981caa707b3bb625c144b5b3d6b089896040516106aa9291906118a3565b60405180910390a25050505050505050565b6106c461090b565b600254600160201b900460ff166106ee5760405163e8103dfd60e01b815260040160405180910390fd5b60095482111561071157604051631e9acf1760e31b815260040160405180910390fd5b60095482036107335760405163dbb31ff560e01b815260040160405180910390fd5b61073d8282611177565b5050565b61074961090b565b61075281610a00565b50565b60405163ce96cb7760e01b8152306004820152600090819081906001600160a01b037f0000000000000000000000000000000000000000000000000000000000000000169063ce96cb7790602401602060405180830381865afa1580156107c0573d6000803e3d6000fd5b505050506040513d601f19601f820116820180604052508101906107e491906118d2565b90506000600954826107f69190611901565b600254909150819060009061ffff1680156108345761082561081a82612710611914565b859061ffff16611200565b92506108318385611901565b91505b50909590945092505050565b61084861090b565b600254600160201b900460ff166108725760405163e8103dfd60e01b815260040160405180910390fd5b61087e60001982611177565b6002805464ff00000000191690556040517f2c697fe98db8a73cca91f037831ba797c2059ef4346744cf40ebefaaaec1d20290600090a150565b6108c061090b565b6001600160a01b0381166108ea57604051631e4fbdf760e01b815260006004820152602401610436565b61075281610cc8565b6108fb61090b565b610906838383610938565b505050565b6000546001600160a01b031633146103e45760405163118cdaa760e01b8152336004820152602401610436565b82600003610959576040516302e8f35960e31b815260040160405180910390fd5b61271061ffff83161180610972575061271061ffff8216115b156109905760405163648564d360e01b815260040160405180910390fd5b60018381556002805461ffff85811663ffffffff19909216821762010000918616918202179092556040805187815260208101929092528101919091527fc2f24689b2f895155a610399cfef2f3ce9c51f1ece3e25e851c2c2fdc12fd5349060600160405180910390a150505050565b600254600160201b900460ff16610a2a5760405163e8103dfd60e01b815260040160405180910390fd5b8060096000828254610a3c9190611936565b90915550339050610a787f00000000000000000000000000000000000000000000000000000000000000006001600160a01b0316823085611220565b610acc6001600160a01b037f0000000000000000000000000000000000000000000000000000000000000000167f00000000000000000000000000000000000000000000000000000000000000008461128d565b604051636e553f6560e01b8152600481018390523060248201527f00000000000000000000000000000000000000000000000000000000000000006001600160a01b031690636e553f65906044016020604051808303816000875af1158015610b39573d6000803e3d6000fd5b505050506040513d601f19601f82011682018060405250810190610b5d91906118d2565b50806001600160a01b03167fe1fffcc4923d04b559f4d29a8bfc6cda04eb5b0d3c460751c2402c5c5cc9109c83604051610b9991815260200190565b60405180910390a25050565b60408051608081018252600154815260025461ffff80821660208401526201000082041692820192909252600160201b90910460ff16151560608201819052600391904290610c075760405163e8103dfd60e01b815260040160405180910390fd5b600554811015610c2a57604051636218b96960e11b815260040160405180910390fd5b82546001908490600090610c4390849061ffff16611949565b92506101000a81548161ffff021916908361ffff160217905550808360010181905550816000015181610c769190611936565b600284015582546005546040805161ffff9093168352602083018490528201527f327a174d4de28c25925b60fe178ebbe0cfff5a073f8197106e63100bc3db1c769060600160405180910390a1505050565b600080546001600160a01b038381166001600160a01b0319831681178455604051919092169283917f8be0079c531659141344cd1fd0a4f28419497f9722a3daafe3b4186f6b6457e09190a35050565b600080600080610d2a8888888861131d565b925092509250610d3a82826113ec565b50909695505050505050565b600080610d51610755565b915091508060096000828254610d679190611936565b9091555050604051632d182be560e21b815260048101839052306024820181905260448201527f00000000000000000000000000000000000000000000000000000000000000006001600160a01b03169063b460af94906064016020604051808303816000875af1158015610de0573d6000803e3d6000fd5b505050506040513d601f19601f82011682018060405250810190610e0491906118d2565b50600080610e1485870187611a41565b81519193509150846000805b83811015610f32576000868281518110610e3c57610e3c611b01565b602002602001015190506000868381518110610e5a57610e5a611b01565b602002602001015190506000600187610e739190611901565b8414610e8c57610e878b61ffff8416611200565b610e8e565b855b9050610e9a8286611949565b9450610ea68187611901565b9550610edc6001600160a01b037f00000000000000000000000000000000000000000000000000000000000000001684836114a5565b6040805161ffff84168152602081018390526001600160a01b038516917fab643f94b66ba7785e49b15dd5b32253ca142bf1c5031c15fb4314bac38bfaae910160405180910390a2836001019350505050610e20565b5061ffff811661271014610f5f576040516329f1733d60e11b815261ffff82166004820152602401610436565b505050505050505050565b6000198203610ffe5760405163ce96cb7760e01b81523060048201527f00000000000000000000000000000000000000000000000000000000000000006001600160a01b03169063ce96cb7790602401602060405180830381865afa158015610fd7573d6000803e3d6000fd5b505050506040513d601f19601f82011682018060405250810190610ffb91906118d2565b91505b81600960008282546110109190611901565b9091555050604051632d182be560e21b815260048101839052306024820181905260448201527f00000000000000000000000000000000000000000000000000000000000000006001600160a01b03169063b460af94906064016020604051808303816000875af19250505080156110a5575060408051601f3d908101601f191682019092526110a2918101906118d2565b60015b1561073d575060405163a9059cbb60e01b81526001600160a01b038281166004830152602482018490527f0000000000000000000000000000000000000000000000000000000000000000169063a9059cbb906044016020604051808303816000875af1925050508015611136575060408051601f3d908101601f1916820190925261113391810190611b17565b60015b1561073d5750806001600160a01b03167f884edad9ce6fa2440d8a54cc123490eb96d2768479d49ff9c7366125a942436483604051610b9991815260200190565b6001600160a01b03811661119e57604051631e4ec46b60e01b815260040160405180910390fd5b6040805180820182528381526001600160a01b03831660209182018190526006859055600780546001600160a01b0319168217905591518481527fe4b67652e856f57a7747dd2473850ce987087f4b1744a870504f1c047cb56f4f9101610b99565b600061271061120f8385611b39565b6112199190611b50565b9392505050565b6040516001600160a01b0384811660248301528381166044830152606482018390526112879186918216906323b872dd906084015b604051602081830303815290604052915060e01b6020820180516001600160e01b0383818316178352505050506114d6565b50505050565b604080516001600160a01b038416602482015260448082018490528251808303909101815260649091019091526020810180516001600160e01b031663095ea7b360e01b1790526112de8482611539565b611287576040516001600160a01b0384811660248301526000604483015261131391869182169063095ea7b390606401611255565b61128784826114d6565b600080807f7fffffffffffffffffffffffffffffff5d576e7357a4501ddfe92f46681b20a084111561135857506000915060039050826113e2565b604080516000808252602082018084528a905260ff891692820192909252606081018790526080810186905260019060a0016020604051602081039080840390855afa1580156113ac573d6000803e3d6000fd5b5050604051601f1901519150506001600160a01b0381166113d8575060009250600191508290506113e2565b9250600091508190505b9450945094915050565b600082600381111561140057611400611b72565b03611409575050565b600182600381111561141d5761141d611b72565b0361143b5760405163f645eedf60e01b815260040160405180910390fd5b600282600381111561144f5761144f611b72565b036114705760405163fce698f760e01b815260048101829052602401610436565b600382600381111561148457611484611b72565b0361073d576040516335e2f38360e21b815260048101829052602401610436565b6040516001600160a01b0383811660248301526044820183905261090691859182169063a9059cbb90606401611255565b60006114eb6001600160a01b038416836115e3565b9050805160001415801561151057508080602001905181019061150e9190611b17565b155b1561090657604051635274afe760e01b81526001600160a01b0384166004820152602401610436565b6000806000846001600160a01b0316846040516115569190611b88565b6000604051808303816000865af19150503d8060008114611593576040519150601f19603f3d011682016040523d82523d6000602084013e611598565b606091505b50915091508180156115c25750805115806115c25750808060200190518101906115c29190611b17565b80156115d857506000856001600160a01b03163b115b925050505b92915050565b60606112198383600084600080856001600160a01b031684866040516116099190611b88565b60006040518083038185875af1925050503d8060008114611646576040519150601f19603f3d011682016040523d82523d6000602084013e61164b565b606091505b509150915061165b868383611665565b9695505050505050565b60608261167a57611675826116c1565b611219565b815115801561169157506001600160a01b0384163b155b156116ba57604051639996b31560e01b81526001600160a01b0385166004820152602401610436565b5080611219565b8051156116d15780518082602001fd5b604051630a12f52160e11b815260040160405180910390fd5b803561ffff811681146116fc57600080fd5b919050565b6000806000806080858703121561171757600080fd5b843593506020850135925061172e604086016116ea565b915061173c606086016116ea565b905092959194509250565b80356001600160a01b03811681146116fc57600080fd5b60006020828403121561177057600080fd5b61121982611747565b60008060008060006080868803121561179157600080fd5b853567ffffffffffffffff808211156117a957600080fd5b818801915088601f8301126117bd57600080fd5b8135818111156117cc57600080fd5b8960208285010111156117de57600080fd5b6020928301975095505086013560ff811681146117fa57600080fd5b94979396509394604081013594506060013592915050565b6000806040838503121561182557600080fd5b8235915061183560208401611747565b90509250929050565b60006020828403121561185057600080fd5b5035919050565b60008060006060848603121561186c57600080fd5b8335925061187c602085016116ea565b915061188a604085016116ea565b90509250925092565b8183823760009101908152919050565b60208152816020820152818360408301376000818301604090810191909152601f909201601f19160101919050565b6000602082840312156118e457600080fd5b5051919050565b634e487b7160e01b600052601160045260246000fd5b818103818111156115dd576115dd6118eb565b61ffff82811682821603908082111561192f5761192f6118eb565b5092915050565b808201808211156115dd576115dd6118eb565b61ffff81811683821601908082111561192f5761192f6118eb565b634e487b7160e01b600052604160045260246000fd5b604051601f8201601f1916810167ffffffffffffffff811182821017156119a3576119a3611964565b604052919050565b600067ffffffffffffffff8211156119c5576119c5611964565b5060051b60200190565b600082601f8301126119e057600080fd5b813560206119f56119f0836119ab565b61197a565b82815260059290921b84018101918181019086841115611a1457600080fd5b8286015b84811015611a3657611a29816116ea565b8352918301918301611a18565b509695505050505050565b60008060408385031215611a5457600080fd5b823567ffffffffffffffff80821115611a6c57600080fd5b818501915085601f830112611a8057600080fd5b81356020611a906119f0836119ab565b82815260059290921b84018101918181019089841115611aaf57600080fd5b948201945b83861015611ad457611ac586611747565b82529482019490820190611ab4565b96505086013592505080821115611aea57600080fd5b50611af7858286016119cf565b9150509250929050565b634e487b7160e01b600052603260045260246000fd5b600060208284031215611b2957600080fd5b8151801515811461121957600080fd5b80820281158282048414176115dd576115dd6118eb565b600082611b6d57634e487b7160e01b600052601260045260246000fd5b500490565b634e487b7160e01b600052602160045260246000fd5b6000825160005b81811015611ba95760208186018101518583015201611b8f565b50600092019182525091905056fea26469706673582212206fb1a3d186fa683e095d54d66899f0c2415d6d07f251044aefa78685e8a3cfa664736f6c63430008140033",
    "linkReferences": {}
  },
  "methodIdentifiers": {
    "decommissionDam(address)": "e189106b",
    "deposit(uint256)": "b6b55f25",
    "embankment()": "ba656dd8",
    "endRound(bytes,uint8,bytes32,bytes32)": "95012855",
    "fund()": "b60d4288",
    "getTotalIncentive()": "d7ba276b",
    "operateDam(uint256,uint256,uint16,uint16)": "2a41693b",
    "oracle()": "7dc0d1d0",
    "owner()": "8da5cb5b",
    "renounceOwnership()": "715018a6",
    "round()": "146ca531",
    "scheduleWithdrawal(uint256,address)": "a5e238e9",
    "setOracle(address)": "7adbf973",
    "setUpstream(uint256,uint16,uint16)": "fc1bc565",
    "transferOwnership(address)": "f2fde38b",
    "upstream()": "6a99a523",
    "withdrawal()": "d4e93292",
    "ybToken()": "ea8a8df7"
  },
  "id": 37
}