{
  "abi": [
    {
      "inputs": [
        {
          "internalType": "contract IERC20",
          "name": "_ybToken",
          "type": "address"
        },
        {
          "internalType": "string",
          "name": "name",
          "type": "string"
        },
        {
          "internalType": "string",
          "name": "symbol",
          "type": "string"
        }
      ],
      "stateMutability": "nonpayable",
      "type": "constructor"
    },
    {
      "inputs": [
        {
          "internalType": "address",
          "name": "target",
          "type": "address"
        }
      ],
      "name": "AddressEmptyCode",
      "type": "error"
    },
    {
      "inputs": [
        {
          "internalType": "address",
          "name": "account",
          "type": "address"
        }
      ],
      "name": "AddressInsufficientBalance",
      "type": "error"
    },
    {
      "inputs": [
        {
          "internalType": "address",
          "name": "spender",
          "type": "address"
        },
        {
          "internalType": "uint256",
          "name": "allowance",
          "type": "uint256"
        },
        {
          "internalType": "uint256",
          "name": "needed",
          "type": "uint256"
        }
      ],
      "name": "ERC20InsufficientAllowance",
      "type": "error"
    },
    {
      "inputs": [
        {
          "internalType": "address",
          "name": "sender",
          "type": "address"
        },
        {
          "internalType": "uint256",
          "name": "balance",
          "type": "uint256"
        },
        {
          "internalType": "uint256",
          "name": "needed",
          "type": "uint256"
        }
      ],
      "name": "ERC20InsufficientBalance",
      "type": "error"
    },
    {
      "inputs": [
        {
          "internalType": "address",
          "name": "approver",
          "type": "address"
        }
      ],
      "name": "ERC20InvalidApprover",
      "type": "error"
    },
    {
      "inputs": [
        {
          "internalType": "address",
          "name": "receiver",
          "type": "address"
        }
      ],
      "name": "ERC20InvalidReceiver",
      "type": "error"
    },
    {
      "inputs": [
        {
          "internalType": "address",
          "name": "sender",
          "type": "address"
        }
      ],
      "name": "ERC20InvalidSender",
      "type": "error"
    },
    {
      "inputs": [
        {
          "internalType": "address",
          "name": "spender",
          "type": "address"
        }
      ],
      "name": "ERC20InvalidSpender",
      "type": "error"
    },
    {
      "inputs": [
        {
          "internalType": "address",
          "name": "receiver",
          "type": "address"
        },
        {
          "internalType": "uint256",
          "name": "assets",
          "type": "uint256"
        },
        {
          "internalType": "uint256",
          "name": "max",
          "type": "uint256"
        }
      ],
      "name": "ERC4626ExceededMaxDeposit",
      "type": "error"
    },
    {
      "inputs": [
        {
          "internalType": "address",
          "name": "receiver",
          "type": "address"
        },
        {
          "internalType": "uint256",
          "name": "shares",
          "type": "uint256"
        },
        {
          "internalType": "uint256",
          "name": "max",
          "type": "uint256"
        }
      ],
      "name": "ERC4626ExceededMaxMint",
      "type": "error"
    },
    {
      "inputs": [
        {
          "internalType": "address",
          "name": "owner",
          "type": "address"
        },
        {
          "internalType": "uint256",
          "name": "shares",
          "type": "uint256"
        },
        {
          "internalType": "uint256",
          "name": "max",
          "type": "uint256"
        }
      ],
      "name": "ERC4626ExceededMaxRedeem",
      "type": "error"
    },
    {
      "inputs": [
        {
          "internalType": "address",
          "name": "owner",
          "type": "address"
        },
        {
          "internalType": "uint256",
          "name": "assets",
          "type": "uint256"
        },
        {
          "internalType": "uint256",
          "name": "max",
          "type": "uint256"
        }
      ],
      "name": "ERC4626ExceededMaxWithdraw",
      "type": "error"
    },
    {
      "inputs": [],
      "name": "FailedInnerCall",
      "type": "error"
    },
    {
      "inputs": [],
      "name": "MathOverflowedMulDiv",
      "type": "error"
    },
    {
      "inputs": [
        {
          "internalType": "address",
          "name": "owner",
          "type": "address"
        }
      ],
      "name": "OwnableInvalidOwner",
      "type": "error"
    },
    {
      "inputs": [
        {
          "internalType": "address",
          "name": "account",
          "type": "address"
        }
      ],
      "name": "OwnableUnauthorizedAccount",
      "type": "error"
    },
    {
      "inputs": [
        {
          "internalType": "address",
          "name": "token",
          "type": "address"
        }
      ],
      "name": "SafeERC20FailedOperation",
      "type": "error"
    },
    {
      "anonymous": false,
      "inputs": [
        {
          "indexed": true,
          "internalType": "address",
          "name": "owner",
          "type": "address"
        },
        {
          "indexed": true,
          "internalType": "address",
          "name": "spender",
          "type": "address"
        },
        {
          "indexed": false,
          "internalType": "uint256",
          "name": "value",
          "type": "uint256"
        }
      ],
      "name": "Approval",
      "type": "event"
    },
    {
      "anonymous": false,
      "inputs": [
        {
          "indexed": true,
          "internalType": "address",
          "name": "sender",
          "type": "address"
        },
        {
          "indexed": true,
          "internalType": "address",
          "name": "owner",
          "type": "address"
        },
        {
          "indexed": false,
          "internalType": "uint256",
          "name": "assets",
          "type": "uint256"
        },
        {
          "indexed": false,
          "internalType": "uint256",
          "name": "shares",
          "type": "uint256"
        }
      ],
      "name": "Deposit",
      "type": "event"
    },
    {
      "anonymous": false,
      "inputs": [
        {
          "indexed": true,
          "internalType": "address",
          "name": "previousOwner",
          "type": "address"
        },
        {
          "indexed": true,
          "internalType": "address",
          "name": "newOwner",
          "type": "address"
        }
      ],
      "name": "OwnershipTransferred",
      "type": "event"
    },
    {
      "anonymous": false,
      "inputs": [
        {
          "indexed": true,
          "internalType": "address",
          "name": "from",
          "type": "address"
        },
        {
          "indexed": true,
          "internalType": "address",
          "name": "to",
          "type": "address"
        },
        {
          "indexed": false,
          "internalType": "uint256",
          "name": "value",
          "type": "uint256"
        }
      ],
      "name": "Transfer",
      "type": "event"
    },
    {
      "anonymous": false,
      "inputs": [
        {
          "indexed": true,
          "internalType": "address",
          "name": "sender",
          "type": "address"
        },
        {
          "indexed": true,
          "internalType": "address",
          "name": "receiver",
          "type": "address"
        },
        {
          "indexed": true,
          "internalType": "address",
          "name": "owner",
          "type": "address"
        },
        {
          "indexed": false,
          "internalType": "uint256",
          "name": "assets",
          "type": "uint256"
        },
        {
          "indexed": false,
          "internalType": "uint256",
          "name": "shares",
          "type": "uint256"
        }
      ],
      "name": "Withdraw",
      "type": "event"
    },
    {
      "inputs": [
        {
          "internalType": "address",
          "name": "owner",
          "type": "address"
        },
        {
          "internalType": "address",
          "name": "spender",
          "type": "address"
        }
      ],
      "name": "allowance",
      "outputs": [
        {
          "internalType": "uint256",
          "name": "",
          "type": "uint256"
        }
      ],
      "stateMutability": "view",
      "type": "function"
    },
    {
      "inputs": [
        {
          "internalType": "address",
          "name": "spender",
          "type": "address"
        },
        {
          "internalType": "uint256",
          "name": "value",
          "type": "uint256"
        }
      ],
      "name": "approve",
      "outputs": [
        {
          "internalType": "bool",
          "name": "",
          "type": "bool"
        }
      ],
      "stateMutability": "nonpayable",
      "type": "function"
    },
    {
      "inputs": [],
      "name": "asset",
      "outputs": [
        {
          "internalType": "address",
          "name": "",
          "type": "address"
        }
      ],
      "stateMutability": "view",
      "type": "function"
    },
    {
      "inputs": [
        {
          "internalType": "address",
          "name": "account",
          "type": "address"
        }
      ],
      "name": "balanceOf",
      "outputs": [
        {
          "internalType": "uint256",
          "name": "",
          "type": "uint256"
        }
      ],
      "stateMutability": "view",
      "type": "function"
    },
    {
      "inputs": [
        {
          "internalType": "uint256",
          "name": "shares",
          "type": "uint256"
        }
      ],
      "name": "convertToAssets",
      "outputs": [
        {
          "internalType": "uint256",
          "name": "",
          "type": "uint256"
        }
      ],
      "stateMutability": "view",
      "type": "function"
    },
    {
      "inputs": [
        {
          "internalType": "uint256",
          "name": "assets",
          "type": "uint256"
        }
      ],
      "name": "convertToShares",
      "outputs": [
        {
          "internalType": "uint256",
          "name": "",
          "type": "uint256"
        }
      ],
      "stateMutability": "view",
      "type": "function"
    },
    {
      "inputs": [],
      "name": "decimals",
      "outputs": [
        {
          "internalType": "uint8",
          "name": "",
          "type": "uint8"
        }
      ],
      "stateMutability": "view",
      "type": "function"
    },
    {
      "inputs": [
        {
          "internalType": "uint256",
          "name": "assets",
          "type": "uint256"
        },
        {
          "internalType": "address",
          "name": "receiver",
          "type": "address"
        }
      ],
      "name": "deposit",
      "outputs": [
        {
          "internalType": "uint256",
          "name": "",
          "type": "uint256"
        }
      ],
      "stateMutability": "nonpayable",
      "type": "function"
    },
    {
      "inputs": [
        {
          "internalType": "address",
          "name": "",
          "type": "address"
        }
      ],
      "name": "maxDeposit",
      "outputs": [
        {
          "internalType": "uint256",
          "name": "",
          "type": "uint256"
        }
      ],
      "stateMutability": "view",
      "type": "function"
    },
    {
      "inputs": [
        {
          "internalType": "address",
          "name": "",
          "type": "address"
        }
      ],
      "name": "maxMint",
      "outputs": [
        {
          "internalType": "uint256",
          "name": "",
          "type": "uint256"
        }
      ],
      "stateMutability": "view",
      "type": "function"
    },
    {
      "inputs": [
        {
          "internalType": "address",
          "name": "owner",
          "type": "address"
        }
      ],
      "name": "maxRedeem",
      "outputs": [
        {
          "internalType": "uint256",
          "name": "",
          "type": "uint256"
        }
      ],
      "stateMutability": "view",
      "type": "function"
    },
    {
      "inputs": [
        {
          "internalType": "address",
          "name": "owner",
          "type": "address"
        }
      ],
      "name": "maxWithdraw",
      "outputs": [
        {
          "internalType": "uint256",
          "name": "",
          "type": "uint256"
        }
      ],
      "stateMutability": "view",
      "type": "function"
    },
    {
      "inputs": [
        {
          "internalType": "uint256",
          "name": "shares",
          "type": "uint256"
        },
        {
          "internalType": "address",
          "name": "receiver",
          "type": "address"
        }
      ],
      "name": "mint",
      "outputs": [
        {
          "internalType": "uint256",
          "name": "",
          "type": "uint256"
        }
      ],
      "stateMutability": "nonpayable",
      "type": "function"
    },
    {
      "inputs": [],
      "name": "name",
      "outputs": [
        {
          "internalType": "string",
          "name": "",
          "type": "string"
        }
      ],
      "stateMutability": "view",
      "type": "function"
    },
    {
      "inputs": [],
      "name": "owner",
      "outputs": [
        {
          "internalType": "address",
          "name": "",
          "type": "address"
        }
      ],
      "stateMutability": "view",
      "type": "function"
    },
    {
      "inputs": [
        {
          "internalType": "uint256",
          "name": "assets",
          "type": "uint256"
        }
      ],
      "name": "previewDeposit",
      "outputs": [
        {
          "internalType": "uint256",
          "name": "",
          "type": "uint256"
        }
      ],
      "stateMutability": "view",
      "type": "function"
    },
    {
      "inputs": [
        {
          "internalType": "uint256",
          "name": "shares",
          "type": "uint256"
        }
      ],
      "name": "previewMint",
      "outputs": [
        {
          "internalType": "uint256",
          "name": "",
          "type": "uint256"
        }
      ],
      "stateMutability": "view",
      "type": "function"
    },
    {
      "inputs": [
        {
          "internalType": "uint256",
          "name": "shares",
          "type": "uint256"
        }
      ],
      "name": "previewRedeem",
      "outputs": [
        {
          "internalType": "uint256",
          "name": "",
          "type": "uint256"
        }
      ],
      "stateMutability": "view",
      "type": "function"
    },
    {
      "inputs": [
        {
          "internalType": "uint256",
          "name": "assets",
          "type": "uint256"
        }
      ],
      "name": "previewWithdraw",
      "outputs": [
        {
          "internalType": "uint256",
          "name": "",
          "type": "uint256"
        }
      ],
      "stateMutability": "view",
      "type": "function"
    },
    {
      "inputs": [
        {
          "internalType": "uint256",
          "name": "shares",
          "type": "uint256"
        },
        {
          "internalType": "address",
          "name": "receiver",
          "type": "address"
        },
        {
          "internalType": "address",
          "name": "owner",
          "type": "address"
        }
      ],
      "name": "redeem",
      "outputs": [
        {
          "internalType": "uint256",
          "name": "",
          "type": "uint256"
        }
      ],
      "stateMutability": "nonpayable",
      "type": "function"
    },
    {
      "inputs": [],
      "name": "renounceOwnership",
      "outputs": [],
      "stateMutability": "nonpayable",
      "type": "function"
    },
    {
      "inputs": [],
      "name": "symbol",
      "outputs": [
        {
          "internalType": "string",
          "name": "",
          "type": "string"
        }
      ],
      "stateMutability": "view",
      "type": "function"
    },
    {
      "inputs": [],
      "name": "totalAssets",
      "outputs": [
        {
          "internalType": "uint256",
          "name": "",
          "type": "uint256"
        }
      ],
      "stateMutability": "view",
      "type": "function"
    },
    {
      "inputs": [],
      "name": "totalSupply",
      "outputs": [
        {
          "internalType": "uint256",
          "name": "",
          "type": "uint256"
        }
      ],
      "stateMutability": "view",
      "type": "function"
    },
    {
      "inputs": [
        {
          "internalType": "address",
          "name": "to",
          "type": "address"
        },
        {
          "internalType": "uint256",
          "name": "value",
          "type": "uint256"
        }
      ],
      "name": "transfer",
      "outputs": [
        {
          "internalType": "bool",
          "name": "",
          "type": "bool"
        }
      ],
      "stateMutability": "nonpayable",
      "type": "function"
    },
    {
      "inputs": [
        {
          "internalType": "address",
          "name": "from",
          "type": "address"
        },
        {
          "internalType": "address",
          "name": "to",
          "type": "address"
        },
        {
          "internalType": "uint256",
          "name": "value",
          "type": "uint256"
        }
      ],
      "name": "transferFrom",
      "outputs": [
        {
          "internalType": "bool",
          "name": "",
          "type": "bool"
        }
      ],
      "stateMutability": "nonpayable",
      "type": "function"
    },
    {
      "inputs": [
        {
          "internalType": "address",
          "name": "newOwner",
          "type": "address"
        }
      ],
      "name": "transferOwnership",
      "outputs": [],
      "stateMutability": "nonpayable",
      "type": "function"
    },
    {
      "inputs": [
        {
          "internalType": "uint256",
          "name": "assets",
          "type": "uint256"
        },
        {
          "internalType": "address",
          "name": "receiver",
          "type": "address"
        },
        {
          "internalType": "address",
          "name": "owner",
          "type": "address"
        }
      ],
      "name": "withdraw",
      "outputs": [
        {
          "internalType": "uint256",
          "name": "",
          "type": "uint256"
        }
      ],
      "stateMutability": "nonpayable",
      "type": "function"
    }
  ],
  "bytecode": {
    "object": "0x60c06040523480156200001157600080fd5b50604051620019a0380380620019a08339810160408190526200003491620002d6565b338383836003620000468382620003ef565b506004620000558282620003ef565b5050506000806200006c83620000d260201b60201c565b91509150816200007e57601262000080565b805b60ff1660a05250506001600160a01b039081166080528116620000bd57604051631e4fbdf760e01b81526000600482015260240160405180910390fd5b620000c881620001b7565b50505050620004f3565b60408051600481526024810182526020810180516001600160e01b031663313ce56760e01b17905290516000918291829182916001600160a01b038716916200011b91620004bb565b600060405180830381855afa9150503d806000811462000158576040519150601f19603f3d011682016040523d82523d6000602084013e6200015d565b606091505b50915091508180156200017257506020815110155b15620001aa57600081806020019051810190620001909190620004d9565b905060ff8111620001a8576001969095509350505050565b505b5060009485945092505050565b600580546001600160a01b038381166001600160a01b0319831681179093556040519116919082907f8be0079c531659141344cd1fd0a4f28419497f9722a3daafe3b4186f6b6457e090600090a35050565b634e487b7160e01b600052604160045260246000fd5b60005b838110156200023c57818101518382015260200162000222565b50506000910152565b600082601f8301126200025757600080fd5b81516001600160401b038082111562000274576200027462000209565b604051601f8301601f19908116603f011681019082821181831017156200029f576200029f62000209565b81604052838152866020858801011115620002b957600080fd5b620002cc8460208301602089016200021f565b9695505050505050565b600080600060608486031215620002ec57600080fd5b83516001600160a01b03811681146200030457600080fd5b60208501519093506001600160401b03808211156200032257600080fd5b620003308783880162000245565b935060408601519150808211156200034757600080fd5b50620003568682870162000245565b9150509250925092565b600181811c908216806200037557607f821691505b6020821081036200039657634e487b7160e01b600052602260045260246000fd5b50919050565b601f821115620003ea57600081815260208120601f850160051c81016020861015620003c55750805b601f850160051c820191505b81811015620003e657828155600101620003d1565b5050505b505050565b81516001600160401b038111156200040b576200040b62000209565b62000423816200041c845462000360565b846200039c565b602080601f8311600181146200045b5760008415620004425750858301515b600019600386901b1c1916600185901b178555620003e6565b600085815260208120601f198616915b828110156200048c578886015182559484019460019091019084016200046b565b5085821015620004ab5787850151600019600388901b60f8161c191681555b5050505050600190811b01905550565b60008251620004cf8184602087016200021f565b9190910192915050565b600060208284031215620004ec57600080fd5b5051919050565b60805160a0516114726200052e60003960006105910152600081816102790152818161042101528181610bc70152610c7901526114726000f3fe608060405234801561001057600080fd5b50600436106101c45760003560e01c80638da5cb5b116100f9578063c63d75b611610097578063d905777e11610071578063d905777e146103aa578063dd62ed3e146103bd578063ef8b30f714610384578063f2fde38b146103f657600080fd5b8063c63d75b6146102b1578063c6e6f59214610384578063ce96cb771461039757600080fd5b8063a9059cbb116100d3578063a9059cbb14610338578063b3d7f6b91461034b578063b460af941461035e578063ba0876521461037157600080fd5b80638da5cb5b1461030c57806394bf804d1461031d57806395d89b411461033057600080fd5b8063313ce567116101665780634cdad506116101405780634cdad506146101f95780636e553f65146102c657806370a08231146102d9578063715018a61461030257600080fd5b8063313ce5671461025d57806338d52e0f14610277578063402d267d146102b157600080fd5b8063095ea7b3116101a2578063095ea7b31461020c5780630a28a4771461022f57806318160ddd1461024257806323b872dd1461024a57600080fd5b806301e1d114146101c957806306fdde03146101e457806307a2d13a146101f9575b600080fd5b6101d1610409565b6040519081526020015b60405180910390f35b6101ec610499565b6040516101db919061107e565b6101d16102073660046110b1565b61052b565b61021f61021a3660046110e6565b61053e565b60405190151581526020016101db565b6101d161023d3660046110b1565b610556565b6002546101d1565b61021f610258366004611110565b610563565b610265610589565b60405160ff90911681526020016101db565b7f00000000000000000000000000000000000000000000000000000000000000005b6040516001600160a01b0390911681526020016101db565b6101d16102bf36600461114c565b5060001990565b6101d16102d4366004611167565b6105b5565b6101d16102e736600461114c565b6001600160a01b031660009081526020819052604090205490565b61030a6105c9565b005b6005546001600160a01b0316610299565b6101d161032b366004611167565b6105dd565b6101ec6105f1565b61021f6103463660046110e6565b610600565b6101d16103593660046110b1565b61060e565b6101d161036c366004611193565b61061b565b6101d161037f366004611193565b610638565b6101d16103923660046110b1565b61064d565b6101d16103a536600461114c565b61065a565b6101d16103b836600461114c565b61067e565b6101d16103cb3660046111cf565b6001600160a01b03918216600090815260016020908152604080832093909416825291909152205490565b61030a61040436600461114c565b61069c565b6040516370a0823160e01b81523060048201526000907f00000000000000000000000000000000000000000000000000000000000000006001600160a01b0316906370a0823190602401602060405180830381865afa158015610470573d6000803e3d6000fd5b505050506040513d601f19601f8201168201806040525081019061049491906111f9565b905090565b6060600380546104a890611212565b80601f01602080910402602001604051908101604052809291908181526020018280546104d490611212565b80156105215780601f106104f657610100808354040283529160200191610521565b820191906000526020600020905b81548152906001019060200180831161050457829003601f168201915b5050505050905090565b60006105388260006106df565b92915050565b60003361054c818585610719565b5060019392505050565b600061053882600161072b565b60003361057185828561075b565b61057c8585856107c6565b60019150505b9392505050565b6000610494817f0000000000000000000000000000000000000000000000000000000000000000611262565b60006105bf610825565b6105828383610852565b6105d1610825565b6105db6000610870565b565b60006105e7610825565b61058283836108c2565b6060600480546104a890611212565b60003361054c8185856107c6565b60006105388260016106df565b6000610625610825565b6106308484846108e0565b949350505050565b6000610642610825565b610630848484610938565b600061053882600061072b565b6001600160a01b0381166000908152602081905260408120546105389060006106df565b6001600160a01b038116600090815260208190526040812054610538565b6106a4610825565b6001600160a01b0381166106d357604051631e4fbdf760e01b8152600060048201526024015b60405180910390fd5b6106dc81610870565b50565b60006105826106ec610409565b6106f790600161127b565b6107036000600a611372565b600254610710919061127b565b85919085610987565b61072683838360016109d6565b505050565b600061058261073b82600a611372565b600254610748919061127b565b610750610409565b61071090600161127b565b6001600160a01b0383811660009081526001602090815260408083209386168352929052205460001981146107c057818110156107b157828183604051637dc7a0d960e11b81526004016106ca93929190611381565b6107c0848484840360006109d6565b50505050565b6001600160a01b0383166107f057604051634b637e8f60e11b8152600060048201526024016106ca565b6001600160a01b03821661081a5760405163ec442f0560e01b8152600060048201526024016106ca565b610726838383610aab565b6005546001600160a01b031633146105db5760405163118cdaa760e01b81523360048201526024016106ca565b600060001960006108628561064d565b905061063033858784610bc2565b600580546001600160a01b038381166001600160a01b0319831681179093556040519116919082907f8be0079c531659141344cd1fd0a4f28419497f9722a3daafe3b4186f6b6457e090600090a35050565b600060001960006108d28561060e565b905061063033858388610bc2565b6000806108ec8361065a565b90508085111561091557828582604051633fa733bb60e21b81526004016106ca93929190611381565b600061092086610556565b905061092f3386868985610c46565b95945050505050565b6000806109448361067e565b90508085111561096d57828582604051632e52afbb60e21b81526004016106ca93929190611381565b60006109788661052b565b905061092f338686848a610c46565b600080610995868686610d06565b90506109a083610dca565b80156109bc5750600084806109b7576109b76113a2565b868809115b1561092f576109cc60018261127b565b9695505050505050565b6001600160a01b038416610a005760405163e602df0560e01b8152600060048201526024016106ca565b6001600160a01b038316610a2a57604051634a1406b160e11b8152600060048201526024016106ca565b6001600160a01b03808516600090815260016020908152604080832093871683529290522082905580156107c057826001600160a01b0316846001600160a01b03167f8c5be1e5ebec7d5bd14f71427d1e84f3dd0314c0f7b2291e5b200ac8c7c3b92584604051610a9d91815260200190565b60405180910390a350505050565b6001600160a01b038316610ad6578060026000828254610acb919061127b565b90915550610b359050565b6001600160a01b03831660009081526020819052604090205481811015610b165783818360405163391434e360e21b81526004016106ca93929190611381565b6001600160a01b03841660009081526020819052604090209082900390555b6001600160a01b038216610b5157600280548290039055610b70565b6001600160a01b03821660009081526020819052604090208054820190555b816001600160a01b0316836001600160a01b03167fddf252ad1be2c89b69c2b068fc378daa952ba7f163c4a11628f55a4df523b3ef83604051610bb591815260200190565b60405180910390a3505050565b610bee7f0000000000000000000000000000000000000000000000000000000000000000853085610df7565b610bf88382610e5e565b826001600160a01b0316846001600160a01b03167fdcbc1c05240f31ff3ad067ef1ee35ce4997762752e3a095284754544f4c709d78484604051610a9d929190918252602082015260400190565b826001600160a01b0316856001600160a01b031614610c6a57610c6a83868361075b565b610c748382610e98565b610c9f7f00000000000000000000000000000000000000000000000000000000000000008584610ece565b826001600160a01b0316846001600160a01b0316866001600160a01b03167ffbde797d201c681b91056529119e0b02407c7bb96a4a2c75c01fc9667232c8db8585604051610cf7929190918252602082015260400190565b60405180910390a45050505050565b6000838302816000198587098281108382030391505080600003610d3d57838281610d3357610d336113a2565b0492505050610582565b808411610d5d5760405163227bc15360e01b815260040160405180910390fd5b6000848688096000868103871696879004966002600389028118808a02820302808a02820302808a02820302808a02820302808a02820302808a02909103029181900381900460010186841190950394909402919094039290920491909117919091029150509392505050565b60006002826003811115610de057610de06113b8565b610dea91906113ce565b60ff166001149050919050565b6040516001600160a01b0384811660248301528381166044830152606482018390526107c09186918216906323b872dd906084015b604051602081830303815290604052915060e01b6020820180516001600160e01b038381831617835250505050610eff565b6001600160a01b038216610e885760405163ec442f0560e01b8152600060048201526024016106ca565b610e9460008383610aab565b5050565b6001600160a01b038216610ec257604051634b637e8f60e11b8152600060048201526024016106ca565b610e9482600083610aab565b6040516001600160a01b0383811660248301526044820183905261072691859182169063a9059cbb90606401610e2c565b6000610f146001600160a01b03841683610f62565b90508051600014158015610f39575080806020019051810190610f3791906113fe565b155b1561072657604051635274afe760e01b81526001600160a01b03841660048201526024016106ca565b60606105828383600084600080856001600160a01b03168486604051610f889190611420565b60006040518083038185875af1925050503d8060008114610fc5576040519150601f19603f3d011682016040523d82523d6000602084013e610fca565b606091505b50915091506109cc868383606082610fea57610fe582611031565b610582565b815115801561100157506001600160a01b0384163b155b1561102a57604051639996b31560e01b81526001600160a01b03851660048201526024016106ca565b5080610582565b8051156110415780518082602001fd5b604051630a12f52160e11b815260040160405180910390fd5b60005b8381101561107557818101518382015260200161105d565b50506000910152565b602081526000825180602084015261109d81604085016020870161105a565b601f01601f19169190910160400192915050565b6000602082840312156110c357600080fd5b5035919050565b80356001600160a01b03811681146110e157600080fd5b919050565b600080604083850312156110f957600080fd5b611102836110ca565b946020939093013593505050565b60008060006060848603121561112557600080fd5b61112e846110ca565b925061113c602085016110ca565b9150604084013590509250925092565b60006020828403121561115e57600080fd5b610582826110ca565b6000806040838503121561117a57600080fd5b8235915061118a602084016110ca565b90509250929050565b6000806000606084860312156111a857600080fd5b833592506111b8602085016110ca565b91506111c6604085016110ca565b90509250925092565b600080604083850312156111e257600080fd5b6111eb836110ca565b915061118a602084016110ca565b60006020828403121561120b57600080fd5b5051919050565b600181811c9082168061122657607f821691505b60208210810361124657634e487b7160e01b600052602260045260246000fd5b50919050565b634e487b7160e01b600052601160045260246000fd5b60ff81811683821601908111156105385761053861124c565b808201808211156105385761053861124c565b600181815b808511156112c95781600019048211156112af576112af61124c565b808516156112bc57918102915b93841c9390800290611293565b509250929050565b6000826112e057506001610538565b816112ed57506000610538565b8160018114611303576002811461130d57611329565b6001915050610538565b60ff84111561131e5761131e61124c565b50506001821b610538565b5060208310610133831016604e8410600b841016171561134c575081810a610538565b611356838361128e565b806000190482111561136a5761136a61124c565b029392505050565b600061058260ff8416836112d1565b6001600160a01b039390931683526020830191909152604082015260600190565b634e487b7160e01b600052601260045260246000fd5b634e487b7160e01b600052602160045260246000fd5b600060ff8316806113ef57634e487b7160e01b600052601260045260246000fd5b8060ff84160691505092915050565b60006020828403121561141057600080fd5b8151801515811461058257600080fd5b6000825161143281846020870161105a565b919091019291505056fea2646970667358221220f2af2b692bd8d441ca7b4b37d97840aaa8536899b8e656bcc2408f97f9f6b0ba64736f6c63430008140033",
    "linkReferences": {}
  },
  "methodIdentifiers": {
    "allowance(address,address)": "dd62ed3e",
    "approve(address,uint256)": "095ea7b3",
    "asset()": "38d52e0f",
    "balanceOf(address)": "70a08231",
    "convertToAssets(uint256)": "07a2d13a",
    "convertToShares(uint256)": "c6e6f592",
    "decimals()": "313ce567",
    "deposit(uint256,address)": "6e553f65",
    "maxDeposit(address)": "402d267d",
    "maxMint(address)": "c63d75b6",
    "maxRedeem(address)": "d905777e",
    "maxWithdraw(address)": "ce96cb77",
    "mint(uint256,address)": "94bf804d",
    "name()": "06fdde03",
    "owner()": "8da5cb5b",
    "previewDeposit(uint256)": "ef8b30f7",
    "previewMint(uint256)": "b3d7f6b9",
    "previewRedeem(uint256)": "4cdad506",
    "previewWithdraw(uint256)": "0a28a477",
    "redeem(uint256,address,address)": "ba087652",
    "renounceOwnership()": "715018a6",
    "symbol()": "95d89b41",
    "totalAssets()": "01e1d114",
    "totalSupply()": "18160ddd",
    "transfer(address,uint256)": "a9059cbb",
    "transferFrom(address,address,uint256)": "23b872dd",
    "transferOwnership(address)": "f2fde38b",
    "withdraw(uint256,address,address)": "b460af94"
  },
  "id": 38
}