{
  "abi": [
    {
      "inputs": [],
      "stateMutability": "nonpayable",
      "type": "constructor"
    },
    {
      "inputs": [],
      "name": "ECDSAInvalidSignature",
      "type": "error"
    },
    {
      "inputs": [
        {
          "internalType": "uint256",
          "name": "length",
          "type": "uint256"
        }
      ],
      "name": "ECDSAInvalidSignatureLength",
      "type": "error"
    },
    {
      "inputs": [
        {
          "internalType": "bytes32",
          "name": "s",
          "type": "bytes32"
        }
      ],
      "name": "ECDSAInvalidSignatureS",
      "type": "error"
    },
    {
      "inputs": [
        {
          "internalType": "address",
          "name": "spender",
          "type": "address"
        },
        {
          "internalType": "uint256",
          "name": "allowance",
          "type": "uint256"
        },
        {
          "internalType": "uint256",
          "name": "needed",
          "type": "uint256"
        }
      ],
      "name": "ERC20InsufficientAllowance",
      "type": "error"
    },
    {
      "inputs": [
        {
          "internalType": "address",
          "name": "sender",
          "type": "address"
        },
        {
          "internalType": "uint256",
          "name": "balance",
          "type": "uint256"
        },
        {
          "internalType": "uint256",
          "name": "needed",
          "type": "uint256"
        }
      ],
      "name": "ERC20InsufficientBalance",
      "type": "error"
    },
    {
      "inputs": [
        {
          "internalType": "address",
          "name": "approver",
          "type": "address"
        }
      ],
      "name": "ERC20InvalidApprover",
      "type": "error"
    },
    {
      "inputs": [
        {
          "internalType": "address",
          "name": "receiver",
          "type": "address"
        }
      ],
      "name": "ERC20InvalidReceiver",
      "type": "error"
    },
    {
      "inputs": [
        {
          "internalType": "address",
          "name": "sender",
          "type": "address"
        }
      ],
      "name": "ERC20InvalidSender",
      "type": "error"
    },
    {
      "inputs": [
        {
          "internalType": "address",
          "name": "spender",
          "type": "address"
        }
      ],
      "name": "ERC20InvalidSpender",
      "type": "error"
    },
    {
      "inputs": [
        {
          "internalType": "uint256",
          "name": "deadline",
          "type": "uint256"
        }
      ],
      "name": "ERC2612ExpiredSignature",
      "type": "error"
    },
    {
      "inputs": [
        {
          "internalType": "address",
          "name": "signer",
          "type": "address"
        },
        {
          "internalType": "address",
          "name": "owner",
          "type": "address"
        }
      ],
      "name": "ERC2612InvalidSigner",
      "type": "error"
    },
    {
      "inputs": [
        {
          "internalType": "address",
          "name": "account",
          "type": "address"
        },
        {
          "internalType": "uint256",
          "name": "currentNonce",
          "type": "uint256"
        }
      ],
      "name": "InvalidAccountNonce",
      "type": "error"
    },
    {
      "inputs": [],
      "name": "InvalidShortString",
      "type": "error"
    },
    {
      "inputs": [
        {
          "internalType": "string",
          "name": "str",
          "type": "string"
        }
      ],
      "name": "StringTooLong",
      "type": "error"
    },
    {
      "anonymous": false,
      "inputs": [
        {
          "indexed": true,
          "internalType": "address",
          "name": "owner",
          "type": "address"
        },
        {
          "indexed": true,
          "internalType": "address",
          "name": "spender",
          "type": "address"
        },
        {
          "indexed": false,
          "internalType": "uint256",
          "name": "value",
          "type": "uint256"
        }
      ],
      "name": "Approval",
      "type": "event"
    },
    {
      "anonymous": false,
      "inputs": [],
      "name": "EIP712DomainChanged",
      "type": "event"
    },
    {
      "anonymous": false,
      "inputs": [
        {
          "indexed": true,
          "internalType": "address",
          "name": "from",
          "type": "address"
        },
        {
          "indexed": true,
          "internalType": "address",
          "name": "to",
          "type": "address"
        },
        {
          "indexed": false,
          "internalType": "uint256",
          "name": "value",
          "type": "uint256"
        }
      ],
      "name": "Transfer",
      "type": "event"
    },
    {
      "inputs": [],
      "name": "DOMAIN_SEPARATOR",
      "outputs": [
        {
          "internalType": "bytes32",
          "name": "",
          "type": "bytes32"
        }
      ],
      "stateMutability": "view",
      "type": "function"
    },
    {
      "inputs": [
        {
          "internalType": "address",
          "name": "owner",
          "type": "address"
        },
        {
          "internalType": "address",
          "name": "spender",
          "type": "address"
        }
      ],
      "name": "allowance",
      "outputs": [
        {
          "internalType": "uint256",
          "name": "",
          "type": "uint256"
        }
      ],
      "stateMutability": "view",
      "type": "function"
    },
    {
      "inputs": [
        {
          "internalType": "address",
          "name": "spender",
          "type": "address"
        },
        {
          "internalType": "uint256",
          "name": "value",
          "type": "uint256"
        }
      ],
      "name": "approve",
      "outputs": [
        {
          "internalType": "bool",
          "name": "",
          "type": "bool"
        }
      ],
      "stateMutability": "nonpayable",
      "type": "function"
    },
    {
      "inputs": [
        {
          "internalType": "address",
          "name": "account",
          "type": "address"
        }
      ],
      "name": "balanceOf",
      "outputs": [
        {
          "internalType": "uint256",
          "name": "",
          "type": "uint256"
        }
      ],
      "stateMutability": "view",
      "type": "function"
    },
    {
      "inputs": [],
      "name": "decimals",
      "outputs": [
        {
          "internalType": "uint8",
          "name": "",
          "type": "uint8"
        }
      ],
      "stateMutability": "view",
      "type": "function"
    },
    {
      "inputs": [],
      "name": "eip712Domain",
      "outputs": [
        {
          "internalType": "bytes1",
          "name": "fields",
          "type": "bytes1"
        },
        {
          "internalType": "string",
          "name": "name",
          "type": "string"
        },
        {
          "internalType": "string",
          "name": "version",
          "type": "string"
        },
        {
          "internalType": "uint256",
          "name": "chainId",
          "type": "uint256"
        },
        {
          "internalType": "address",
          "name": "verifyingContract",
          "type": "address"
        },
        {
          "internalType": "bytes32",
          "name": "salt",
          "type": "bytes32"
        },
        {
          "internalType": "uint256[]",
          "name": "extensions",
          "type": "uint256[]"
        }
      ],
      "stateMutability": "view",
      "type": "function"
    },
    {
      "inputs": [
        {
          "internalType": "address",
          "name": "to",
          "type": "address"
        },
        {
          "internalType": "uint256",
          "name": "amount",
          "type": "uint256"
        }
      ],
      "name": "mint",
      "outputs": [],
      "stateMutability": "nonpayable",
      "type": "function"
    },
    {
      "inputs": [],
      "name": "name",
      "outputs": [
        {
          "internalType": "string",
          "name": "",
          "type": "string"
        }
      ],
      "stateMutability": "view",
      "type": "function"
    },
    {
      "inputs": [
        {
          "internalType": "address",
          "name": "owner",
          "type": "address"
        }
      ],
      "name": "nonces",
      "outputs": [
        {
          "internalType": "uint256",
          "name": "",
          "type": "uint256"
        }
      ],
      "stateMutability": "view",
      "type": "function"
    },
    {
      "inputs": [
        {
          "internalType": "address",
          "name": "owner",
          "type": "address"
        },
        {
          "internalType": "address",
          "name": "spender",
          "type": "address"
        },
        {
          "internalType": "uint256",
          "name": "value",
          "type": "uint256"
        },
        {
          "internalType": "uint256",
          "name": "deadline",
          "type": "uint256"
        },
        {
          "internalType": "uint8",
          "name": "v",
          "type": "uint8"
        },
        {
          "internalType": "bytes32",
          "name": "r",
          "type": "bytes32"
        },
        {
          "internalType": "bytes32",
          "name": "s",
          "type": "bytes32"
        }
      ],
      "name": "permit",
      "outputs": [],
      "stateMutability": "nonpayable",
      "type": "function"
    },
    {
      "inputs": [
        {
          "internalType": "address",
          "name": "account",
          "type": "address"
        }
      ],
      "name": "simulateAccrual",
      "outputs": [],
      "stateMutability": "nonpayable",
      "type": "function"
    },
    {
      "inputs": [],
      "name": "symbol",
      "outputs": [
        {
          "internalType": "string",
          "name": "",
          "type": "string"
        }
      ],
      "stateMutability": "view",
      "type": "function"
    },
    {
      "inputs": [],
      "name": "totalSupply",
      "outputs": [
        {
          "internalType": "uint256",
          "name": "",
          "type": "uint256"
        }
      ],
      "stateMutability": "view",
      "type": "function"
    },
    {
      "inputs": [
        {
          "internalType": "address",
          "name": "to",
          "type": "address"
        },
        {
          "internalType": "uint256",
          "name": "value",
          "type": "uint256"
        }
      ],
      "name": "transfer",
      "outputs": [
        {
          "internalType": "bool",
          "name": "",
          "type": "bool"
        }
      ],
      "stateMutability": "nonpayable",
      "type": "function"
    },
    {
      "inputs": [
        {
          "internalType": "address",
          "name": "from",
          "type": "address"
        },
        {
          "internalType": "address",
          "name": "to",
          "type": "address"
        },
        {
          "internalType": "uint256",
          "name": "value",
          "type": "uint256"
        }
      ],
      "name": "transferFrom",
      "outputs": [
        {
          "internalType": "bool",
          "name": "",
          "type": "bool"
        }
      ],
      "stateMutability": "nonpayable",
      "type": "function"
    }
  ],
  "bytecode": {
    "object": "0x6101606040523480156200001257600080fd5b506040518060400160405280601881526020017f4d6f636b205969656c642d62656172696e6720746f6b656e000000000000000081525080604051806040016040528060018152602001603160f81b8152506040518060400160405280601881526020017f4d6f636b205969656c642d62656172696e6720746f6b656e00000000000000008152506040518060400160405280600681526020016536b7b1b5aca160d11b8152508160039081620000ca9190620002c4565b506004620000d98282620002c4565b50620000eb915083905060056200019a565b61012052620000fc8160066200019a565b61014052815160208084019190912060e052815190820120610100524660a0526200018a60e05161010051604080517f8b73c3c69bb8fe3d512ecc4cf759cc79239f7b179b0ffacaa9a75d522b39400f60208201529081019290925260608201524660808201523060a082015260009060c00160405160208183030381529060405280519060200120905090565b60805250503060c0525062000405565b6000602083511015620001ba57620001b283620001d3565b9050620001cd565b81620001c78482620002c4565b5060ff90505b92915050565b600080829050601f815111156200020a578260405163305a27a960e01b815260040162000201919062000390565b60405180910390fd5b80516200021782620003e0565b179392505050565b634e487b7160e01b600052604160045260246000fd5b600181811c908216806200024a57607f821691505b6020821081036200026b57634e487b7160e01b600052602260045260246000fd5b50919050565b601f821115620002bf57600081815260208120601f850160051c810160208610156200029a5750805b601f850160051c820191505b81811015620002bb57828155600101620002a6565b5050505b505050565b81516001600160401b03811115620002e057620002e06200021f565b620002f881620002f1845462000235565b8462000271565b602080601f831160018114620003305760008415620003175750858301515b600019600386901b1c1916600185901b178555620002bb565b600085815260208120601f198616915b82811015620003615788860151825594840194600190910190840162000340565b5085821015620003805787850151600019600388901b60f8161c191681555b5050505050600190811b01905550565b600060208083528351808285015260005b81811015620003bf57858101830151858201604001528201620003a1565b506000604082860101526040601f19601f8301168501019250505092915050565b805160208083015191908110156200026b5760001960209190910360031b1b16919050565b60805160a05160c05160e051610100516101205161014051610f9c6200046060003960006107a201526000610775015260006106e7015260006106bf0152600061061a015260006106440152600061066e0152610f9c6000f3fe608060405234801561001057600080fd5b50600436106100f55760003560e01c806370a0823111610097578063a9059cbb11610066578063a9059cbb146101eb578063d505accf146101fe578063dd62ed3e14610211578063e6c203621461024a57600080fd5b806370a082311461018c5780637ecebe00146101b557806384b0196e146101c857806395d89b41146101e357600080fd5b806323b872dd116100d357806323b872dd1461014d578063313ce567146101605780633644e5151461016f57806340c10f191461017757600080fd5b806306fdde03146100fa578063095ea7b31461011857806318160ddd1461013b575b600080fd5b61010261025d565b60405161010f9190610d02565b60405180910390f35b61012b610126366004610d38565b6102ef565b604051901515815260200161010f565b6002545b60405190815260200161010f565b61012b61015b366004610d62565b610309565b6040516012815260200161010f565b61013f61032d565b61018a610185366004610d38565b61033c565b005b61013f61019a366004610d9e565b6001600160a01b031660009081526020819052604090205490565b61013f6101c3366004610d9e565b61034a565b6101d0610368565b60405161010f9796959493929190610db9565b6101026103ae565b61012b6101f9366004610d38565b6103bd565b61018a61020c366004610e4f565b6103cb565b61013f61021f366004610ec2565b6001600160a01b03918216600090815260016020908152604080832093909416825291909152205490565b61018a610258366004610d9e565b61050a565b60606003805461026c90610ef5565b80601f016020809104026020016040519081016040528092919081815260200182805461029890610ef5565b80156102e55780601f106102ba576101008083540402835291602001916102e5565b820191906000526020600020905b8154815290600101906020018083116102c857829003601f168201915b5050505050905090565b6000336102fd81858561051e565b60019150505b92915050565b600033610317858285610530565b6103228585856105ae565b506001949350505050565b600061033761060d565b905090565b6103468282610738565b5050565b6001600160a01b038116600090815260076020526040812054610303565b60006060806000806000606061037c61076e565b61038461079b565b60408051600080825260208201909252600f60f81b9b939a50919850469750309650945092509050565b60606004805461026c90610ef5565b6000336102fd8185856105ae565b834211156103f45760405163313c898160e11b8152600481018590526024015b60405180910390fd5b60007f6e71edae12b1b97f4d1f60370fef10105fa2faae0126114a169c64845d6126c98888886104418c6001600160a01b0316600090815260076020526040902080546001810190915590565b6040805160208101969096526001600160a01b0394851690860152929091166060840152608083015260a082015260c0810186905260e001604051602081830303815290604052805190602001209050600061049c826107c8565b905060006104ac828787876107f5565b9050896001600160a01b0316816001600160a01b0316146104f3576040516325c0072360e11b81526001600160a01b0380831660048301528b1660248201526044016103eb565b6104fe8a8a8a61051e565b50505050505050505050565b61051b81662386f26fc10000610738565b50565b61052b8383836001610823565b505050565b6001600160a01b0383811660009081526001602090815260408083209386168352929052205460001981146105a8578181101561059957604051637dc7a0d960e11b81526001600160a01b038416600482015260248101829052604481018390526064016103eb565b6105a884848484036000610823565b50505050565b6001600160a01b0383166105d857604051634b637e8f60e11b8152600060048201526024016103eb565b6001600160a01b0382166106025760405163ec442f0560e01b8152600060048201526024016103eb565b61052b8383836108f8565b6000306001600160a01b037f00000000000000000000000000000000000000000000000000000000000000001614801561066657507f000000000000000000000000000000000000000000000000000000000000000046145b1561069057507f000000000000000000000000000000000000000000000000000000000000000090565b610337604080517f8b73c3c69bb8fe3d512ecc4cf759cc79239f7b179b0ffacaa9a75d522b39400f60208201527f0000000000000000000000000000000000000000000000000000000000000000918101919091527f000000000000000000000000000000000000000000000000000000000000000060608201524660808201523060a082015260009060c00160405160208183030381529060405280519060200120905090565b6001600160a01b0382166107625760405163ec442f0560e01b8152600060048201526024016103eb565b610346600083836108f8565b60606103377f00000000000000000000000000000000000000000000000000000000000000006005610a22565b60606103377f00000000000000000000000000000000000000000000000000000000000000006006610a22565b60006103036107d561060d565b8360405161190160f01b8152600281019290925260228201526042902090565b60008060008061080788888888610acd565b9250925092506108178282610b9c565b50909695505050505050565b6001600160a01b03841661084d5760405163e602df0560e01b8152600060048201526024016103eb565b6001600160a01b03831661087757604051634a1406b160e11b8152600060048201526024016103eb565b6001600160a01b03808516600090815260016020908152604080832093871683529290522082905580156105a857826001600160a01b0316846001600160a01b03167f8c5be1e5ebec7d5bd14f71427d1e84f3dd0314c0f7b2291e5b200ac8c7c3b925846040516108ea91815260200190565b60405180910390a350505050565b6001600160a01b0383166109235780600260008282546109189190610f2f565b909155506109959050565b6001600160a01b038316600090815260208190526040902054818110156109765760405163391434e360e21b81526001600160a01b038516600482015260248101829052604481018390526064016103eb565b6001600160a01b03841660009081526020819052604090209082900390555b6001600160a01b0382166109b1576002805482900390556109d0565b6001600160a01b03821660009081526020819052604090208054820190555b816001600160a01b0316836001600160a01b03167fddf252ad1be2c89b69c2b068fc378daa952ba7f163c4a11628f55a4df523b3ef83604051610a1591815260200190565b60405180910390a3505050565b606060ff8314610a3c57610a3583610c55565b9050610303565b818054610a4890610ef5565b80601f0160208091040260200160405190810160405280929190818152602001828054610a7490610ef5565b8015610ac15780601f10610a9657610100808354040283529160200191610ac1565b820191906000526020600020905b815481529060010190602001808311610aa457829003601f168201915b50505050509050610303565b600080807f7fffffffffffffffffffffffffffffff5d576e7357a4501ddfe92f46681b20a0841115610b085750600091506003905082610b92565b604080516000808252602082018084528a905260ff891692820192909252606081018790526080810186905260019060a0016020604051602081039080840390855afa158015610b5c573d6000803e3d6000fd5b5050604051601f1901519150506001600160a01b038116610b8857506000925060019150829050610b92565b9250600091508190505b9450945094915050565b6000826003811115610bb057610bb0610f50565b03610bb9575050565b6001826003811115610bcd57610bcd610f50565b03610beb5760405163f645eedf60e01b815260040160405180910390fd5b6002826003811115610bff57610bff610f50565b03610c205760405163fce698f760e01b8152600481018290526024016103eb565b6003826003811115610c3457610c34610f50565b03610346576040516335e2f38360e21b8152600481018290526024016103eb565b60606000610c6283610c94565b604080516020808252818301909252919250600091906020820181803683375050509182525060208101929092525090565b600060ff8216601f81111561030357604051632cd44ac360e21b815260040160405180910390fd5b6000815180845260005b81811015610ce257602081850181015186830182015201610cc6565b506000602082860101526020601f19601f83011685010191505092915050565b602081526000610d156020830184610cbc565b9392505050565b80356001600160a01b0381168114610d3357600080fd5b919050565b60008060408385031215610d4b57600080fd5b610d5483610d1c565b946020939093013593505050565b600080600060608486031215610d7757600080fd5b610d8084610d1c565b9250610d8e60208501610d1c565b9150604084013590509250925092565b600060208284031215610db057600080fd5b610d1582610d1c565b60ff60f81b881681526000602060e081840152610dd960e084018a610cbc565b8381036040850152610deb818a610cbc565b606085018990526001600160a01b038816608086015260a0850187905284810360c0860152855180825283870192509083019060005b81811015610e3d57835183529284019291840191600101610e21565b50909c9b505050505050505050505050565b600080600080600080600060e0888a031215610e6a57600080fd5b610e7388610d1c565b9650610e8160208901610d1c565b95506040880135945060608801359350608088013560ff81168114610ea557600080fd5b9699959850939692959460a0840135945060c09093013592915050565b60008060408385031215610ed557600080fd5b610ede83610d1c565b9150610eec60208401610d1c565b90509250929050565b600181811c90821680610f0957607f821691505b602082108103610f2957634e487b7160e01b600052602260045260246000fd5b50919050565b8082018082111561030357634e487b7160e01b600052601160045260246000fd5b634e487b7160e01b600052602160045260246000fdfea26469706673582212207d9cf39a7798ff36f4ab916931c25ff12ea7a5c9f99008ff17636c6b894fbab664736f6c63430008140033",
    "linkReferences": {}
  },
  "methodIdentifiers": {
    "DOMAIN_SEPARATOR()": "3644e515",
    "allowance(address,address)": "dd62ed3e",
    "approve(address,uint256)": "095ea7b3",
    "balanceOf(address)": "70a08231",
    "decimals()": "313ce567",
    "eip712Domain()": "84b0196e",
    "mint(address,uint256)": "40c10f19",
    "name()": "06fdde03",
    "nonces(address)": "7ecebe00",
    "permit(address,address,uint256,uint256,uint8,bytes32,bytes32)": "d505accf",
    "simulateAccrual(address)": "e6c20362",
    "symbol()": "95d89b41",
    "totalSupply()": "18160ddd",
    "transfer(address,uint256)": "a9059cbb",
    "transferFrom(address,address,uint256)": "23b872dd"
  },
  "id": 49
}